:020000040800F2
:100000002047002045010008091900080B190008C5
:100010000F19000813190008171900080000000044
:100020000000000000000000000000001B19000894
:100030001D190008000000001F1900082119000800
:100040005F0100085F0100085F0100085F01000810
:100050005F0100085F0100085F0100085F01000800
:100060005F0100085F0100085F0100085F010008F0
:100070005F0100085F0100085F0100085F010008E0
:100080005F0100085F0100085F0100085F010008D0
:100090005F0100085F0100085F0100085F010008C0
:1000A0005F0100085F0100085F0100085F010008B0
:1000B0005F0100085F0100085F0100085F010008A0
:1000C0005F0100085F0100085F0100085F01000890
:1000D0005F0100085F010008651900085F01000862
:1000E0005F0100085F0100085F0100085F01000870
:1000F0005F0100085F0100085F0100085F01000860
:100100005F0100085F0100085F0100085F0100084F
:100110005F0100085F0100085F0100085F0100083F
:100120005F0100085F0100085F0100085F0100082F
:10013000DFF80CD003F002FC00480047A1160008CD
:10014000204700200648804706480047FEE7FEE7B4
:10015000FEE7FEE7FEE7FEE7FEE7FEE7FEE7FEE777
:1001600047020008310100080CB500200190009002
:100170006C48006840F480306A49086000BF6948F4
:10018000006800F4003000900198401C0190009835
:1001900018B90198B0F5A06FF1D16248006800F479
:1001A000003010B10120009001E000200090009884
:1001B000012843D15C48006840F010005A490860AB
:1001C0000846006820F0030008600846006840F018
:1001D0000200086053484068524948600846406839
:1001E00048600846406840F48060486008464068BF
:1001F00020F47C1048600846406840F4E8104860ED
:100200000846006840F08070086000BF45480068FC
:1002100000F000700028F9D04248406820F0030048
:10022000404948600846406840F00200486000BF0E
:100230003C48406800F00C000828F9D10CBD10B50E
:10024000FFF792FF10BD10B53648006840F001007E
:1002500034490860084640683449084031494860DC
:1002600008460068324908402E4908600846006880
:1002700020F4802008600846406820F4FE004860B2
:100280004FF41F008860FFF7DAFF4FF00060294944
:10029000086010BD10B5002100200022214B5B68D2
:1002A00003F00C0121B1042906D0082928D107E068
:1002B000214B224C236027E01F4B204C236023E07E
:1002C000184B5B6803F47010164B5B6803F48032C4
:1002D000022303EB904022B9194B4343174C236090
:1002E0000DE0104B5B6803F4003323B1144B434320
:1002F000124C236003E0104B4343104C236003E097
:100300000D4B0E4C236000BF00BF064B5B68C3F370
:1003100003130C4CE15C094B1B68CB40074C23607A
:1003200010BD000000100240002002400000FFF855
:10033000FFFFF6FE08ED00E000127A00000000204A
:1003400000093D000400002031490143314A116099
:10035000704770B5002100230F22C47804B32D4CE0
:10036000246804F4E064C4F5E064210AC1F10403E4
:10037000CA40447804FA03F1847814402143090107
:10038000254C0678A155047804F01F050124AC40E3
:1003900005786D11AD0005F1E025C5F8004109E0D3
:1003A000047804F01F050124AC401C4D067876113A
:1003B00045F8264070BD1A4A0A400243154B1B1FE0
:1003C0001A60704739B1134A121D12680243114B6B
:1003D0001B1D1A6006E00F4A121D126882430D4B66
:1003E0001B1D1A607047042808D14FF0E0210969ED
:1003F00041F004014FF0E022116107E04FF0E021ED
:10040000096921F004014FF0E022116170470000FA
:100410000000FA050CED00E000E400E080E100E0FF
:1004200080FFFF1F30B943F2DB028100A1F1C04120
:100430000A6005E043F2D2028100A1F1C0410A60E6
:100440006FF07042411C8900A1F1C0410A60810037
:10045000A1F1C041C1F80421704710280AD1182128
:100460004FF020421166402151664FF0FC319166F9
:10047000D16610E01821F74A116040214FF0204268
:10048000C2F884104FF0FC31F24A083211604FF08C
:100490002042C2F88C1070471820EE4920310860C5
:1004A00000200906C1F8A4004FF0FC30E9492831CA
:1004B0000860091D0860091D08607047D0E9011235
:1004C0001143C268114302691143426911438269B1
:1004D0001143C2691143026A1143426A1143826A9D
:1004E0001143C26A1143026B114302689200A2F1E8
:1004F000C0421160816808290BD101688900A1F10F
:10050000C041096841F0400201688900A1F1C04181
:100510000A60416B0968426B526841EA0211426B02
:10052000926841EA0221426B928941EA0241426BA0
:10053000128A41EA0251426B127D41EA0261426B2A
:10054000926911430268521C9200A2F1C0421160EC
:10055000C16AB1F5804F1BD1816B0968826B52680B
:1005600041EA0211826B926841EA0221826B128A8F
:1005700041EA0251826B127D41EA0261826B92690B
:10058000114302689200A2F1C042C2F8041107E0D0
:100590006FF0704201688900A1F1C041C1F80421E7
:1005A000704730B5002100220023446844F008045D
:1005B00085682C43C5682C4305692C43456944EA8A
:1005C0004524856944EA4531C4692468C5696D6874
:1005D00044EA0524C5692D8944EA0544C5692D7B93
:1005E00044EA0562046A2468056A6D6844EA0524E1
:1005F000056A2D8944EA0544056A2D7B44EA0563B2
:100600000468102C05D14FF020442166A266E366F1
:1006100008E0904C21604FF02044C4F888208D4CB5
:100620000C34236030BD016841F01001426841EA9A
:100630004221826841EA4231864A20321160C16813
:100640000968C268526841EA0221C268128941EA17
:100650000241C268127B41EA02617E4A283211607F
:10066000016909680269526841EA02210269128936
:1006700041EA02410269127B41EA0261754A2C3269
:100680001160416909684269526841EA0221426980
:10069000128941EA02414269127B41EA02614FF04C
:1006A0002042C2F8B0107047002101600221416071
:1006B00000218160C160016141618161C1610162AC
:1006C0004FF480514162490081620021C16201639F
:1006D0000F21426B1160426B5160FF21426B9160B0
:1006E0000F21426BD160426B1161426B516100215D
:1006F000426B91610F21826B1160826B5160FF210F
:10070000826B91600F21826BD160826B1161826B71
:1007100051610021826B91617047102101600021BD
:1007200041608160C160016141618161FC21C269F8
:100730001160C2695160C2699160C269D160026A88
:100740001160026A5160026A9160026AD16070476A
:100750000021016041608160FC21C2681160C268B3
:100760005160C2689160C268D1600269116002691B
:100770005160026991600269D16042691160426909
:100780005160426991604269D160704751B1820005
:10079000A2F1C042126842F001038200A2F1C042FD
:1007A000136009E08200A2F1C04212682A4B1A408D
:1007B0008300A3F1C0431A60704799B1102808D193
:1007C0004FF02042126E42F004024FF020431A66AE
:1007D0001DE0204A126842F004024FF02043C3F8A3
:1007E000802014E0102809D14FF02042126E1A4BDD
:1007F000DB1E1A404FF020431A6608E0154A1268C3
:10080000154BDB1E1A404FF02043C3F88020704781
:1008100048B110492031096841F004014FF02042ED
:10082000C2F8A01009E00B49203109680A4AD21E1B
:1008300011404FF02042C2F8A0107047B9B1102803
:100840000CD14FF02042126E42F040024FF0204394
:100850001A661FE0800000A0FEFF0F00724A1268B7
:1008600042F040024FF02043C3F8802012E01028ED
:1008700008D14FF02042126E6C4B1A404FF02043CB
:100880001A6607E0684A1268684B1A404FF0204326
:10089000C3F88020704701460020102903D14FF093
:1008A0002042506F02E0604A14321068704710B561
:1008B000F2B1102807D14FF020435B6E0B434FF08D
:1008C0002044636632E0B0F5807F08D1564B1B1D93
:1008D0001B680B434FF02044C4F8843026E0524B91
:1008E00024331B680B434FF02044C4F8A4301DE0B0
:1008F000102807D14FF020435B6E8B434FF020440C
:10090000636613E0B0F5807F08D1474B1B1D1B6861
:100910008B434FF02044C4F8843007E0424B24332B
:100920001B688B434FF02044C4F8A43010BD10B5B1
:10093000024600200023102A03D14FF02044636EAA
:1009400009E0B2F5807F03D1374C241D236802E013
:10095000354C2434236803EA01040CB1012000E083
:10096000002010BD102807D14FF02042526E8A435C
:100970004FF020435A6613E0B0F5807F08D12A4A31
:10098000121D12688A434FF02043C3F8842007E009
:10099000254A243212688A434FF02043C3F8A4202A
:1009A000704770B502460020002300240025102A5D
:1009B00003D14FF02046736E09E0B2F5807F03D17A
:1009C000194E361D336802E0174E2436336803EAA9
:1009D000010403EAD10514B10DB1012000E00020AB
:1009E00070BD102808D14FF02042526E22EAD10289
:1009F0004FF020435A6615E0B0F5807F09D10A4ACE
:100A0000121D126822EAD1024FF02043C3F884205D
:100A100008E0054A2432126822EAD1024FF020434E
:100A2000C3F8A42070470000800000A0BFFF0F00A3
:100A300010B50446CC48844208D10121042000F0BE
:100A40002DFB0021042000F029FB46E0C74884422A
:100A500008D10121082000F021FB0021082000F02E
:100A60001DFB3AE0C248844208D10121102000F069
:100A700015FB0021102000F011FB2EE0BD48844240
:100A800008D10121202000F009FB0021202000F0E6
:100A900005FB22E0B848844208D10121402000F043
:100AA000FDFA0021402000F0F9FA16E0B348844234
:100AB00008D10121802000F0F1FA0021802000F00F
:100AC000EDFA0AE0AE48844207D10121801500F01A
:100AD000E5FA0021A01500F0E1FA10BD10B50121E2
:100AE000084600F0DBFA0021012000F0D7FA10BD23
:100AF0002DE9F041024600250026002000230024B5
:100B0000002791F803C00CF00F0591F803C00CF01A
:100B1000100CBCF1000F03D091F802C04CEA05059F
:100B200091F800C0BCF1000F31D0146800202BE018
:100B30004FF0010C0CFA00F3B1F800C00CEA030608
:100B40009E4220D183004FF00F0C0CFA03F7BC43F8
:100B500005FA03FC4CEA040491F803C0BCF1280F29
:100B600006D14FF0010C0CFA00FCC2F814C00AE0E8
:100B700091F803C0BCF1480F05D14FF0010C0CFAFD
:100B800000FCC2F810C0401C0828D1D31460B1F892
:100B900000C0BCF1FF0F34DD546800202EE000F1EE
:100BA000080C4FF0010808FA0CF3B1F800C00CEA89
:100BB00003069E4221D183004FF00F0C0CFA03F77D
:100BC000BC4305FA03FC4CEA040491F803C0BCF1F1
:100BD000280F05D100F1080C08FA0CF8C2F81480AF
:100BE00091F803C0BCF1480F07D100F1080C4FF099
:100BF000010808FA0CF8C2F81080401C0828CED36F
:100C00005460BDE8F0814FF6FF71018002218170D0
:100C10000421C17070470246002093680B400BB15D
:100C2000012000E0002070470146886880B27047CC
:100C300002460020D3680B400BB1012000E00020E9
:100C400070470146C86880B27047016170474161D2
:100C500070470AB1016100E041617047C1607047AF
:100C60004FF480320A4382618161826182698269C4
:100C7000704702460020434B18684FF680731840B7
:100C800040EA021008433F4B186070473E49C86174
:100C90007047F0B50A46002300240021002500F02B
:100CA0000046B6F1004F02D1364EF16901E0354EF3
:100CB0007168C0F3034583B200F44016B6F5401FD7
:100CC00008D121F070612F4E766826F070662D4FA6
:100CD0007E6012E000F48016B6F5801F06D1032670
:100CE00006FA05F4A14341F0706106E0460D3601B5
:100CF00003FA06F6B14341F0706122B1460D3601A8
:100D000003FA06F6314300F00046B6F1004F02D177
:100D10001C4EF16101E01B4E7160F0BD30B5002248
:100D20008B071C0F0F2303FA04F2164B08338C10A9
:100D300053F824309343134C08348D1044F8253075
:100D400023468C1053F824308C07240F00FA04F447
:100D500023430C4C08348D1044F8253030BD0A492B
:100D6000DC3108607047000000080140000C0140C1
:100D7000001001400014014000180140001C014017
:100D8000002001400000014000002042DF480068D0
:100D900040F00100DD49086008464068DC49084031
:100DA000DA49486008460068DA490840D7490860CF
:100DB0000846006820F4802008600846406820F457
:100DC000FE0048604FF41F0088607047CF490968F3
:100DD00021F48031CD4A11601146096821F4802147
:100DE0001160B0F5803F03D0B0F5802F0ED106E042
:100DF000C649096841F48031C44A116007E0C3491B
:100E0000096841F4A021C14A116000E000BF00BFA1
:100E1000704710B501460022002300204A11012A24
:100E200002D1BA4C236806E0022A02D1B74C236AE9
:100E300001E0B64C636A01F01F02012494401C409B
:100E40000CB1012000E0002010BD38B5002000905A
:100E50000024002500BF3120FFF7DBFF0546009886
:100E6000401C00900098B0F5A06F01D0002DF2D08A
:100E70003120FFF7CEFF08B1012400E00024204616
:100E800038BD01460020A14A106820F0F80040EA71
:100E9000C10010607047A0490860704702460020FA
:100EA0009A4B586820F47C1042EA01031843974B90
:100EB0005860704798490866704701460020934A79
:100EC000506820F003000843506070478F48406826
:100ED00000F00C007047014600208C4A506820F05A
:100EE000F00008435060704701460020874A506870
:100EF00020F4E06008435060704701460020834AB8
:100F0000506820F4605040EAC1005060704729B139
:100F10007E4A527A02437D4B5A7204E07B4A527AEF
:100F200082437A4B5A7270477B49D83108607047C8
:100F300001460020754A506820F440400843506044
:100F400070470021714A20321170704A82F82010D7
:100F5000012802D004280AD104E001216B4A203282
:100F6000117005E00521694A2032117000E000BFD0
:100F700000BF70476949086070476449096A0143C6
:100F8000624A11627047654944390860704730B55C
:100F900000210022002400235C4D6D6805F00C0147
:100FA00021B1042905D0082923D105E05C4D056055
:100FB00022E05B4D05601FE0544D6D6805F4701232
:100FC000524D6D6805F48034022505EB92421CB940
:100FD000544D554305600BE04C4D6D6805F40035EC
:100FE0001DB1504D5543056002E04D4D5543056020
:100FF00002E04B4D056000BF00BF444D6D6805F039
:10100000F0010909484D6B5C0568DD4045603F4DC6
:101010006D6805F4E061090A434D6B5C4568DD408D
:1010200085603A4D6D6805F46051C90A3E4D6B5CB0
:101030004568DD40C560354D6D6805F44041890B5C
:101040003A4D6B5CC568B5FBF3F5056130BD29B160
:101050002E4A526902432D4B5A6104E02B4A5269D1
:1010600082432A4B5A61704729B1284A9269024348
:10107000264B9A6104E0254A92698243234B9A6188
:10108000704729B1214AD2690243204BDA6104E05A
:101090001E4AD26982431D4BDA61704729B11B4A4F
:1010A000D2680243194BDA6004E0184AD2688243DE
:1010B000164BDA60704729B1144A12690243134B88
:1010C0001A6104E0114A12698243104B1A61704799
:1010D00012494039086070470F49C86470470B498E
:1010E000C87170470948406A40F0807007494862FB
:1010F000704701460020054A92680A400AB1012063
:1011000000E00020704701498872704700100240DB
:101110000000FFF8FFFFF6FE00004242800442425A
:1011200000127A0000093D00140000202400002075
:1011300010B50446FB48844209D101218803FFF71A
:10114000ADFF00214FF48040FFF7A8FF32E0F648E2
:10115000844209D101214804FFF7ADFF00214FF47B
:101160000030FFF7A8FF25E0F048844209D10121B3
:101170008804FFF7A0FF00214FF48020FFF79BFFBA
:1011800018E0EB48844209D10121C804FFF793FF1E
:1011900000214FF40020FFF78EFF0BE0E54884426A
:1011A00008D101210805FFF786FF00214FF48010C8
:1011B000FFF781FF10BD2DE9F04786B005460E46CA
:1011C0000024A24600BFA1460027B08900B100BF9D
:1011D0002F462C8A4CF6FF700440F08804432C8282
:1011E000AC894EF6F3100440B08831890843718908
:1011F00008430443AC81AC8A4FF6FF400440B089F9
:101200000443AC8201A8FFF7C2FEC648874202D160
:10121000DDF810A001E0DDF80CA0A88900F4004082
:1012200040B10AEBCA0000EB0A1031684900B0FB7C
:10123000F1F807E00AEBCA0000EB0A1031688900F8
:10124000B0FBF1F86420B8FBF0F004012009642140
:1012500001FB1089A88900F4004040B1322000EB66
:10126000C900B0FBF1F000F00700044308E03220B1
:1012700000EB09106421B0FBF1F000F00F00044313
:101280002C8106B0BDE8F0874FF4165101600021B3
:101290008180C18001810C214181002181817047C1
:1012A00010B502460020108A4FF2FF0318400B8849
:1012B0004C8823438C882343CC88234318431082D3
:1012C00010BD0021018041808180C180704721B123
:1012D000828942F40052828104E082894DF6FF73D4
:1012E0001A4082817047F0B503460024002600258D
:1012F000002040F66A17B94200D100BF1846C1F37A
:10130000421401F01F06012707FA06F5012C01D14E
:101310000C3004E0022C01D1103000E014301AB17E
:1013200007682F43076002E00768AF430760F0BD1E
:101330001AB1838A0B43838202E0838A8B438382C0
:101340007047028A4FF6F0731A400282028A0A43FB
:101350000282704782894FF2FF731A40828182892C
:101360000A438281704721B1828942F00202828160
:1013700004E082894FF6FD731A4082817047028A29
:101380004FF6DF731A400282028A0A4302827047D4
:1013900021B1028A42F48042028204E0028A4BF6C2
:1013A000FF731A4002827047C1F3080282807047BF
:1013B00001468888C0F308007047818941F0010127
:1013C00081817047028BD2B20283028B42EA0122F2
:1013D00002837047028B02F47F420283028B0A432E
:1013E0000283704721B1828A42F02002828204E0A7
:1013F000828A4FF6DF731A408282704721B1828A57
:1014000042F01002828204E0828A4FF6EF731A40A3
:101410008282704721B1828A42F00802828204E00F
:10142000828A4FF6F7731A408282704721B182890F
:1014300042F40042828103E08289C2F30E0282817B
:10144000704721B1828A42F40062828204E0828A7B
:101450004FF2FF731A4082827047828A4FF6FB7305
:101460001A408282828A0A438282704721B1828A2C
:1014700042F00202828204E0828A4FF6FD731A4033
:101480008282704702460020B1F5007F00D100BF84
:1014900013880B400BB1012000E00020704701F4DD
:1014A0000072B2F5007F00D100BFCA4302807047CE
:1014B00070B50246002400230025002040F66A167D
:1014C000B14200D100BFC1F3421501F01F03012654
:1014D00006FA03F3012D02D19689334006E0022D6E
:1014E00002D1168A334001E0968A33400C1201265D
:1014F00006FA04F41688344013B10CB1012000E060
:10150000002070BD10B50022002340F66A14A142ED
:1015100000D100BF0A1201249440A3B2DC4304802E
:1015200010BD000000380140004400400048004069
:10153000004C004000500040F8B54FF4005187487F
:10154000FFF769FB002875D0684602F029F90746C5
:10155000BDF800203946824800F08CFB85B2C82DCA
:1015600069DA002D67D07FA1384602F0AAF938B9B0
:1015700020207A49143108607DA000F059FB78E002
:101580007FA1384602F09DF938B920207349103107
:1015900008607EA000F04CFB6BE071497FA002F078
:1015A0001FFA6F48845DA4F13000092844D2DFE8B7
:1015B00000F005090D1119212931390000207F495A
:1015C00008703AE001207D49087036E002207B492E
:1015D000087032E07A487B4908607B4800687B49A4
:1015E00008602AE07A48774908607A4800687749B5
:1015F000086022E0784873490860784800687349B9
:1016000008601AE076486F490860764800686F49BC
:10161000086012E074486B490860744800686B49C0
:1016200008600AE0724867490860724800686749C4
:10163000086002E020E01EE000BF00BFC823F022E7
:101640007821002001F064FA4FF6FF714FF47840E2
:1016500001F0CCFC68A27821052001F058FC4FF67F
:10166000FF711F2001F0C2FC3D4A8C21052001F0D2
:101670004EFC02F09BF800BFF8BD10B561A002F06F
:10168000AFF9674803780078401C654A1070654AD6
:1016900065A16E4802F0B4F96C4800F0C9FA10BDBB
:1016A000474848490860484800684849086002F0CF
:1016B00095F801F0D2F9062001F046F9644801F0EE
:1016C0008FFC4FF6FF71084601F090FC61480388DB
:1016D000614802880021084601F01AFA01F07CFFF7
:1016E00000F0CCF918B95DA002F07AF904E0644882
:1016F00002F076F900BFFEE762A002F071F94949F5
:101700006DA002F06DF9474A78A17C4802F078F9A3
:1017100000F056F9002420E079480068012804D13F
:10172000002077490860FFF7A8FF76480068012885
:1017300004D1002073490860FFF7FEFE641C42F2EA
:10174000107094FBF0F100FB114030B900241F48E9
:1017500001681C48006801F068FCDDE7000C0140EE
:10176000442A002041542B4C4544313D4F4E00004B
:101770002B4C4544313A4F4E0D0A4F4B0D0A000099
:1017800041542B4C4544313D4F4646002B4C45447B
:10179000313A4F46460D0A4F4B0D0A003C3C2D484E
:1017A0004330352D494E464F2D3E3E2072656365D0
:1017B0006976653A0D0A25730A000000222600208A
:1017C00028000020F425002068060020F8250020CD
:1017D0006C060020AC0C0020B00C0020F0120020A1
:1017E000F41200203419002038190020781F00203E
:1017F0007C1F0020BC25002043686F696365203A88
:10180000000000003C3C2D484330352D494E464FEA
:101810002D3E3E20C0B6D1C0D2D1C1ACBDD30A004E
:10182000FC250020CB2500203C25733E2073656EEF
:1018300064206461746120746573742C74657374BE
:10184000646174613D25640D0A0000004426002097
:101850002426002012260020102600203C3C2D4883
:101860004330352D494E464F2D3E3E2048433035BE
:10187000C4A3BFE9BCECB2E2D5FDB3A3A1A30A00A7
:10188000847700083C3C2D484330352D494E464F67
:101890002D3E3E202A2A2A2A2A2A2A2A2A2A484350
:1018A0003035C4A3BFE9CAB5D1E92A2A2A2A2A2A8F
:1018B0002A2A2A2A2A2A0A003C3C2D484330352D60
:1018C000494E464F2D3E3E20B1BEC4A3BFE9C3FBE7
:1018D000D7D6CEAA3A2573202CC4A3BFE9D2D1D73C
:1018E000BCB1B8BECDD0F7A1A30A000044657669AB
:1018F0006365206E616D653A257300006C2E0020D3
:10190000082600200C260020704700BFFEE700BF1D
:10191000FEE700BFFEE700BFFEE770477047704775
:10192000002007E0204951F82010491C1E4A42F8C7
:101930002010401C0228F5DB1B490968B1F5FA7F2D
:1019400005D30021184A11600121184A1160164977
:101950004968322905D30021134A51600121144AF4
:101960001160704710B513480088B0F5806F12DA27
:1019700040F225511048FFF79BFD98B10E48FFF744
:1019800017FD0E490B4A128888540A480088401CEB
:101990000849088006E040F225510748FFF7B2FDEC
:1019A00001F004FF10BD00000026002008260020E2
:1019B0000C2600203C260020004400401D3300205F
:1019C00030B51A4800686422B0FBF2F1B1F1807FB3
:1019D00001D301201DE021F07F40401E4FF0E022A6
:1019E000506150170F22002807DA13071D0E104B05
:1019F00000F00F04241F1D5503E013071C0E0D4BB0
:101A00001C5400BF00204FF0E022906107201061BD
:101A1000002008B100BFFEE74FF0E020006940F071
:101A200001004FF0E021086130BD000000000020FF
:101A300018ED00E000E400E008B501210820FFF700
:101A400013FB4FF40050ADF8000004208DF80300A4
:101A500003208DF802006946F748FFF749F84FF474
:101A60008040ADF8000010208DF8030003208DF8B1
:101A700002006946F048FFF73BF808BD10B5FFF7D4
:101A8000DBFF01F01AFE002415E004EBC40101EBBA
:101A90000412EA4901EB4200E9A101F0B1FF04EBB5
:101AA000C40101EB0412E74901EB4200E4A101F09B
:101AB000A7FF601CC4B20A2CE7DB0020DF49491EE7
:101AC000087010BD30B58DB004460D464FF480410E
:101AD000D948FFF7BAF842F2107001F091FE45B113
:101AE000287830B12B462246D7A1684601F088FFFE
:101AF0000CE03CB1207828B12246D6A1684601F01E
:101B00007FFF03E0D5A1684601F07AFF00BF00BF68
:101B10006946D44801F036FE0DB030BD2DE9F843DA
:101B200005460C46032634E04FF48041C248FFF7D7
:101B30008CF82946CB4801F025FE4FF4FA7742F2A3
:101B4000107001F05DFE00BF684601F029FE80467E
:101B5000BDF8000000280FDDC3A1404601F08EFE55
:101B600050B100BF00BF00BF00BF012C01D101F088
:101B70001DFE0020BDE8F88342F2107001F040FE27
:101B8000781E0700E0D100BF00BF00BF00BF00BF4C
:101B900000BF3000A6F10101CEB2C5D100BF00BF29
:101BA000012C01D101F002FE0120E3E7F8B5064661
:101BB0000C4617464FF480419F48FFF746F83146E0
:101BC000A84801F0DFFD4FF47A7107FB01F001F046
:101BD00017FE684601F0E4FD0546BDF80000002848
:101BE00019DD0020BDF800106854287818B100BF36
:101BF00000BF00BF00BF9CA1284601F03FFE50B1CE
:101C0000012C01D101F0D2FD4FF480418A48FFF749
:101C10001EF80020F8BD4FF480418748FFF717F801
:101C200000BF00BF012C01D101F0C0FD0120F1E790
:101C300010B5044621468B4801F0A4FD10BD2DE9E6
:101C4000F04105460E461446204601F033FE87B2A9
:101C50000DB106B114B90020BDE8F081BE4207D332
:101C60003A462146284601F043FE08B9E819F3E751
:101C70000020F1E7F0B503460C4615460022214648
:101C80000BE00F781046521C1F54491C08780A2894
:101C900002D008780D2800D103E0087808B1AA42E4
:101CA000EFDB00BF087838B108780A2804D008783C
:101CB0000D2801D00020F0BD002098541046FAE70E
:101CC00070B504460D4600BF3A21204601F0E8FDFC
:101CD000044604B12570002CF6D170BD2DE9F843FF
:101CE00000205649491E087060A001F079FE0021CD
:101CF00068A0FFF713FF684601F052FD804698F890
:101D0000000000287AD066A1404601F0B7FD002807
:101D1000F8D055A1404601F0B1FD00287BD060A16C
:101D2000404601F0ABFD064600244BE05CA1304686
:101D300001F0A4FD0646002E43D0761D2C2130462E
:101D400001F0AEFD07460021397000BF00BF641CE2
:101D500000BF00BF012C0CD1611E01EBC10202EBE0
:101D60000112364901EB4200314601F0B8FD00BFD7
:101D700000BF00251FE005EBC50000EB05122F4852
:101D800000EB4201304601F09CFD18B9641E00BF13
:101D900000BF13E0A01EA8420CD1611E01EBC102DE
:101DA00002EB0112254901EB4200314601F097FD9B
:101DB00000BF00BF6D1C601EA842DCDC00BF7E1CA3
:101DC00000E001E00A2CB1DB00BF1C49491E0C7089
:101DD0000846017834A001F003FE00250BE005EB76
:101DE000C50000EB0511154800EB4102294637A05C
:101DF00001F0F6FD6D1CA542F1DB00E00BE03BA01D
:101E000001F0EEFD01F0D2FC012140A0FFF786FEBB
:101E10000020BDE8F88340A001F0E2FD01F0C6FC1F
:101E200001213AA0FFF77AFE0120F2E7F0B5A7B052
:101E300000BF00BF0024D8E0000C0140352F002077
:101E4000200000002931002041542B257325730DFB
:101E50000A00000041542B25730D0A0041540D0A5D
:101E600000000000004400404F4B00003C3C2D4867
:101E70004330352D494E464F2D3E3E20D5FDD4DA18
:101E8000B2E9D1AFC9E8B1B8C1D0B1ED2E2E2E0A5A
:101E90000000000041542B494E510D0A0000000083
:101EA0002B494E513A0000003C3C2D484330352D23
:101EB000494E464F2D3E3E2041646472204C69736A
:101EC0007420282564293A0A000000003C3C2D4873
:101ED0004330352D494E464F2D3E3E2041646472BD
:101EE0002025643A2025730A000000003C3C2D4860
:101EF0004330352D494E464F2D3E3E20C9A8C3E8FC
:101F0000CDEAB1CFA3A10D0A0A00000041542B492C
:101F10004E51430D0A0000003C3C2D484330352D06
:101F2000494E464F2D3E3E20C3BBD3D0D5D2B5BD82
:101F3000C0B6D1C0C9E8B1B8A3A10D0A0A0000001B
:101F400004EBC40101EB0412674901EB42002C21B0
:101F5000FFF7B6FE04EBC40000EB0411624800EB8F
:101F6000410262A1684601F04BFD00216846FFF77F
:101F7000D5FD26A801F014FC0646307820B3AFF258
:101F80001811304601F07AFCF0B1BDF898203146C6
:101F900019A8FFF76FFE85B2322D03DD15B10020C1
:101FA00019A9485555A2294619A8FFF748FE074622
:101FB000BFB104EBC40101EB0412524901EB420032
:101FC000394601F08CFC0CE004EBC40101EB041277
:101FD0004C4901EB42004CA101F081FC4EA001F004
:101FE000FFFC01F0E3FB601CC4B23F48401E0078D8
:101FF000A042A5DC002027B0F0BD10B53A48401E35
:10200000007818B94E4801F0EBFC26E03648401E37
:1020100001784CA001F0E4FC002419E0214653A013
:1020200001F0DEFC04EBC40000EB04122E4800EBD0
:1020300042015AA001F0D4FC04EBC40000EB0412EE
:10204000304800EB42015EA001F0CAFC601CC4B243
:102050002548401E0078A042E0DC10BD10B59AB0C3
:102060000024FFF73BFEFFF7E1FEFFF7C6FF00BFCE
:1020700030E004EBC40101EB0412224901EB420001
:1020800058A101F0FBFB002822D058A001F0A8FCC9
:1020900004EBC40000EB0411134800EB410262A101
:1020A00001A801F0ADFC002101A8FFF737FD04EB0A
:1020B000C40000EB04110C4800EB41025EA101A832
:1020C00001F09EFC002101A8FFF728FD1AB010BD09
:1020D000601CC4B20448401E0078A042C9DA5AA06D
:1020E00001F07EFC0120F1E7352F002041542B52F6
:1020F0004E414D453F25730D0A0000002B524E41C5
:102100004D453A00293100203CC3FBD7D6BBF1C86E
:10211000A1CAA7B0DC3E00003C3C2D484330352D21
:10212000494E464F2D3E3E20C0B6D1C0C3FBD7D648
:10213000BBF1C8A1CAA7B0DCA3A10D0A0A00000028
:10214000147800083C3C2D484330352D494E464F0D
:102150002D3E3E20C9A8C3E8B5BD20256420B8F6B1
:10216000C0B6D1C0C9E8B1B80A0000003C3C2D4857
:102170004330352D494E464F2D3E3E202F2A2A2AE8
:102180002A2A2A2A4465766963655B25645D2A2AC2
:102190002A2A2A2A2A2A2F0A000000003C3C2D481D
:1021A0004330352D494E464F2D3E3E2044657669DD
:1021B000636520416464723A2025730A00000000C0
:1021C0003C3C2D484330352D494E464F2D3E3E2058
:1021D000446576696365206E616D653A2025730AF2
:1021E0000000000048433035000000003C3C2D4812
:1021F0004330352D494E464F2D3E3E20CBD1CBF7B7
:10220000B5BDD4B6B3CC48433035C4A3BFE9A3AC05
:10221000BCB4BDABBDF8D0D0C5E4B6D4C1ACBDD361
:102220002E2E2E0A0000000041542B504149523DF1
:1022300025732C32300D0A0041542B4C494E4B3D36
:1022400025730D0A000000003C3C2D484330352D1D
:10225000494E464F2D3E3E20CEB4CBD1CBF7B5BD37
:10226000C3FBB3C6D6D0BAACD3D048433035B5C41F
:10227000C9E8B1B82E2E2E0A0000000001B502E018
:102280000098401E009000980028F9D108BD08B5BC
:1022900001216020FEF7E8FE03208DF802001820DF
:1022A0008DF803004FF48040ADF800006946FE4809
:1022B000FEF71EFC4FF40040ADF800006946FA48F6
:1022C000FEF716FC0120ADF800006946F648FEF75F
:1022D0000FFC0220ADF800006946F348FEF708FC49
:1022E0008020ADF800006946F048FEF701FC4FF48D
:1022F0008070ADF800006946EC48FEF7F9FB4FF43A
:102300000070ADF800006946E848FEF7F1FB4FF4B5
:102310008060ADF800006946E448FEF7E9FB4FF441
:102320000060ADF800006946E048FEF7E1FB4FF4BD
:102330008050ADF800006946DC48FEF7D9FB4FF449
:102340000050ADF800006946D848FEF7D1FB4FF4C5
:102350008040ADF800006946D448FEF7C9FB4FF451
:102360000040ADF800006946D048FEF7C1FB4FF4CD
:102370008070ADF800006946CB48FEF7B9FB4FF41A
:102380000070ADF800006946C748FEF7B1FB4FF496
:102390008060ADF800006946C348FEF7A9FB032042
:1023A0008DF8020018208DF803001020ADF8000011
:1023B0006946BD48FEF79CFB2020ADF80000694649
:1023C000B948FEF795FB8020ADF800006946B64895
:1023D000FEF78EFB4FF40060ADF800006946B2488E
:1023E000FEF786FB10208DF8030003208DF8020015
:1023F0000220ADF800006946AC48FEF779FB1020DA
:102400008DF8030003208DF802004FF48050ADF8E2
:1024100000006946A448FEF76BFB08BD00B597B005
:102420003C2108A801F01FFA1C2101A801F01BFAA9
:1024300001210802FEF70BFE012001900420039009
:102440008006079000200290049005900690089066
:10245000099008200A9010200B9000200C900E90FC
:102460000F9010904FF48050119000201290139014
:10247000149001A81590169008A8FEF71FF80121E6
:102480000020FEF783F917B000BD10B5002404202A
:1024900001F09CFA00BF8648008800BF844800888D
:1024A00001F08EFA04464FF6FF7000EA042401F0B2
:1024B00087FA044348F25250844201D1204610BDAD
:1024C000D32001F083FA00BF7948008800BF784824
:1024D000008801F075FA04464FF6FF7000EA042404
:1024E00001F06EFA044349F24130844201D12046A2
:1024F000E5E70020E3E710B5FFF7C7FF6D49088067
:102500000846008849F2413188427CD1CF2001F051
:102510005DFA002001F05EFA812001F05BFA3020C4
:1025200001F058FAED2001F051FA642001F052FA5E
:10253000032001F04FFA122001F04CFA812001F043
:1025400049FAE82001F042FA852001F043FA102010
:1025500001F040FA782001F03DFACB2001F036FA84
:10256000392001F037FA2C2001F034FA002001F074
:1025700031FA342001F02EFA022001F02BFAF72074
:1025800001F024FA202001F025FAEA2001F01EFAD9
:10259000002001F01FFA002001F01CFAB12001F028
:1025A00015FA002001F016FA1B2001F013FAB620EC
:1025B00001F00CFA0A2001F00DFAA22001F00AFA4B
:1025C000C02001F003FA352001F004FAC12001F027
:1025D000FDF9112001F0FEF9C52001F0F7F94520C1
:1025E00001F0F8F9452001F0F5F9C72001F0EEF906
:1025F000A22001F0EFF9F22001F0E8F9002001F04B
:10260000E9F9262000E0A2E001F0E0F9012001F064
:10261000E1F9E02001F0DAF90F2001F0DBF92620E2
:1026200001F0D8F9242001F0D5F90B2001F0D2F9FE
:102630000E2001F0CFF9092001F0CCF9542001F06F
:10264000C9F9A82001F0C6F9462001F0C3F90C2011
:1026500001F0C0F9172001F0BDF9092001F0BAF925
:102660000F2001F0B7F9072001F0B4F9002001F0C4
:10267000B1F9E12001F0AAF9002001F0ABF919202D
:1026800001F0A8F91B2001F0A5F9042001F0A2F93E
:10269000102001F09FF9072001F09CF92A2001F099
:1026A00099F9472008E0000000140140001801409B
:1026B000000002601626002001F08CF9392001F09C
:1026C00089F9032001F086F9062001F083F906203C
:1026D00001F080F9302001F07DF9382001F07AF91D
:1026E0000F2001F077F9362001F070F9C82001F0D1
:1026F00071F92A2001F06AF9002001F06BF900203D
:1027000001F068F9002001F065F9EF2001F062F9AD
:102710002B2001F05BF9002001F05CF9002001F0B2
:1027200059F9012001F056F93F2001F053F93A2000
:1027300001F04CF9552001F04DF9112001F046F956
:10274000FD48FFF79BFD292001F040F9FBE0FB4825
:10275000008848F252518842F8D1CF2001F036F972
:10276000002001F037F9C12001F034F9302001F0E8
:1027700031F9ED2001F02AF9642001F02BF9032052
:1027800001F028F9122001F025F9812001F022F949
:10279000E82001F01BF9852001F01CF9102001F060
:1027A00019F9782001F016F9CB2001F00FF9392042
:1027B00001F010F92C2001F00DF9002001F00AF9C8
:1027C000342001F007F9022001F004F9F72001F0AC
:1027D000FDF8202001F0FEF8EA2001F0F7F80020D3
:1027E00001F0F8F8002001F0F5F8C02001F0EEF853
:1027F000212001F0EFF8C12001F0E8F8112001F0EC
:10280000E9F8C52001F0E2F82D2001F0E3F83320CB
:1028100001F0E0F8362001F0D9F8002001F0DAF8F4
:102820003A2001F0D3F8552001F0D4F8B12001F09E
:10283000CDF8002001F0CEF8172001F0CBF8B6203B
:1028400001F0C4F80A2001F0C5F8A22001F0C2F896
:10285000F62001F0BBF8012001F0BCF8302001F0B7
:10286000B9F8F22001F0B2F8002001F0B3F8262008
:1028700001F0ACF8012001F0ADF8E02001F0A6F87D
:10288000D02001F0A7F8002001F0A4F8022001F008
:10289000A1F8072001F09EF80B2001F09BF81A2008
:1028A00001F098F8312001F095F8542001F092F8E9
:1028B000402001F08FF8292001F08CF8122001F05F
:1028C00089F8122001F086F8122001F083F8172011
:1028D00001F080F8E12001F079F8D02001F07AF8D9
:1028E000002001F077F8022001F074F8072001F0D1
:1028F00071F8052001F06EF8252001F06BF82D200D
:1029000001F068F8442001F065F8452001F062F814
:102910001C2001F05FF8182001F05CF8162001F08F
:1029200059F81C2001F056F81D2001F053F8112031
:1029300001F04CF88048FFF7A1FC292001F046F88F
:102940002C2001F043F810BD10B50446072C00DD23
:1029500010BD7B480470204604EBD0714910A4EBF5
:10296000410139B9F020774908804FF4A0707649C9
:10297000088006E04FF4A07072490880F020724988
:102980000880362001F022F86C48008849F2413175
:10299000884205D1082141EA441001F01BF80AE001
:1029A0006648008848F25251884204D1002141EA29
:1029B000441001F00FF82A2001F008F8002001F07F
:1029C00009F8002001F006F85E490988491EC1F3A4
:1029D000072000F0FFFF5B490978491EC8B200F0EC
:1029E000F9FF2B2000F0F2FF002000F0F3FF0020A1
:1029F00000F0F0FF54490988491EC1F3072000F098
:102A0000E9FF51490978491EC8B200F0E3FF2C20C4
:102A100000F0DCFF00BF9BE710B502214B48FEF73A
:102A200016F940F6FF20FFF729FC02214748FEF780
:102A30000CF940F6FF20FFF721FC10BD10B504464D
:102A40002CB14FF480514248FEF701F904E04FF4F5
:102A500080513F48FEF7F9F810BD10B5FFF717FC9D
:102A6000FFF7DCFC0120FFF7E9FFFFF7D5FFFFF7D9
:102A700042FD33480078FFF767FF10BD2DE9F041B4
:102A800004460D4616461F462A2000F09FFF2012DE
:102A900000F0A0FFE0B200F09DFFA119491EC1F3B4
:102AA0000F2000F097FFA119491EC8B200F092FF55
:102AB0002B2000F08BFF281200F08CFFE8B200F012
:102AC00089FFE919491EC1F30F2000F083FFE919BE
:102AD000491EC8B200F07EFFBDE8F08170B5044623
:102AE0000D4601231A4629462046FFF7C7FF70BD51
:102AF00070B504460D4600262C2000F067FF00BF8D
:102B000003E0284600F066FF761CA642F9D370BDAC
:102B10002DE9F04106460F4614461D462B46224637
:102B200039463046FFF7AAFF04FB05F0094909883A
:102B3000FFF7DEFFBDE8F081FCBF02001626002093
:102B40001426002010260020122600200018014024
:102B5000001401401E26002070B505460C46FE48B4
:102B6000008885420CDAFD480088844208DA214654
:102B70002846FFF7B3FFFA4801880120FFF7B8FFA6
:102B800070BD70B5002400252E2000F01FFF00BF8F
:102B9000F448008800F014FF044600F011FF0546D9
:102BA00004F478404FF4FC6101EAC401084340EAB0
:102BB000E52070BD70B504460D4629462046FFF756
:102BC0008DFFFFF7DEFF0646304670BD2DE9FF4F53
:102BD00083B081464FF0000AD3460598A0EB090563
:102BE00004990698461ACDF8049004980090002D98
:102BF00001DD012705E00DB9002702E04FF0FF37A6
:102C00006D42002E02DD4FF0010806E016B94FF0CC
:102C1000000802E04FF0FF387642B54201DD2C4655
:102C200000E034460020029019E0DDE90010FFF7D3
:102C300093FFAA44B344A24505DDAAEB040A019818
:102C4000384480B20190A34505DDABEB040B00983E
:102C5000404480B200900298401C80B20290611CF7
:102C600002988842E1DD07B0BDE8F08F2DE9F04120
:102C700004460D4616461F46DDF81880B8F1000FD1
:102C80000CD03B46324629462046FFF7F7FE06FBAE
:102C900007F0B3490988FFF72BFF27E0A019401E72
:102CA00082B22B4629462046FFF790FFE819401EC6
:102CB00083B2A019401E82B2E819401E81B220469C
:102CC000FFF784FFE819401E83B2224629462046BA
:102CD000FFF77CFFE919491E8BB2A119491E8AB280
:102CE000A119491E88B22946FFF770FFBDE8F0819F
:102CF0002DE9F05F05460E4691469B4600240FFAEB
:102D000089F70320A0EB49000FFA80FA87E0BBF1B6
:102D1000000F40D0A0463BE006EB080291B22A1912
:102D200090B2FFF719FF06EB080291B22A1B90B28E
:102D3000FFF712FF321991B2A5EB080290B2FFF72C
:102D40000BFF321B91B2A5EB080290B2FFF704FF14
:102D5000A6EB080291B22A1B90B2FFF7FDFEA6EB8C
:102D6000080291B22A1990B2FFF7F6FE321B91B217
:102D700005EB080290B2FFF7EFFE321991B205EBB6
:102D8000080290B2FFF7E8FE08F101000FFA80F8A0
:102D9000B845C1DD2FE0F21991B22A1990B2FFF7C0
:102DA000DBFEF21991B22A1B90B2FFF7D5FE321961
:102DB00091B2EA1B90B2FFF7CFFE321B91B2EA1B31
:102DC00090B2FFF7C9FEF21B91B22A1B90B2FFF737
:102DD000C3FEF21B91B22A1990B2FFF7BDFE321B5F
:102DE00091B2EA1990B2FFF7B7FE321991B2EA191F
:102DF00090B2FFF7B1FE601C04B2BAF1000F05DA21
:102E0000A000801D50440FFA80FA07E0E01B80000C
:102E10000A3050440FFA80FA781E07B200BFBC4255
:102E20007FF775AFBDE8F09F2DE9F05F80468946DA
:102E30001646A6F120001FFA80FA4B4909688988D6
:102E4000494A1268D28801FB02F0C11700EB5171A8
:102E5000C1F3C7074448006800680AFB070B4248F3
:102E60000068C38840480068828849464046FFF7AA
:102E700005FE2C2000F0AAFD002416E0002510E03D
:102E80001BF8040080212941084020B13448008803
:102E900000F0A0FD03E03548008800F09BFD681CB1
:102EA000C5B2082DECDB601CC4B2BC42E6DBBDE859
:102EB000F09F70B504460D46002624E030462A49AE
:102EC00009688988084424490988884205DD002664
:102ED00025480068C088204484B2204622490968F9
:102EE000C98808441D490988884201DD002600245C
:102EF0002A7821463046FFF797FF6D1C1A48006874
:102F00008088304486B228780028D7D170BD70B54B
:102F100005460E46144631E028461349096889885B
:102F200008440D490988884205DD00250E480068DF
:102F3000C088304486B230460B490968C9880844C5
:102F400006490988884201DD00250026227831469D
:102F50002846FFF769FF0BE010260020122600200C
:102F60001C26002000000260182600201E260020DB
:102F7000641CFB4800688088284485B220780028BB
:102F8000CAD170BD70B505460E46144624E03046E1
:102F9000F3490968C9880844F2490988884205DD6F
:102FA0000026EF4800688088284485B22846EC490E
:102FB000096889880844EC490988884201DD0025B0
:102FC0000026227831462846FFF72EFF641CE4488D
:102FD0000068C088304486B220780028D7D170BD00
:102FE000DF4908607047DE4800687047DF4A10809C
:102FF000DF4A11807047DD4A12880280DC4A12885D
:103000000A807047D94908807047D94908807047BD
:1030100070B50446FFF7E7FFC5882B46D248028803
:1030200021460020FFF774FD70BD2DE9F04186B008
:1030300006460C46CF48007820B101287BD00228F4
:103040007AD162E1002005900490CB48008803907B
:10305000002500BF9BE0A54200DD97E0C649088837
:10306000C11700EB1171C1F307110591C24908881E
:10307000C11700EB11710911A0EB0111C9B2049144
:103080009DF8140006EB40119DF8100011F8100097
:1030900002904FF6FF710846FFF7A8FF002001904D
:1030A00010E0B04A178807EBD7729DF8043003EBA5
:1030B000620291B2A8B2FFF74FFD9DF80400401CD8
:1030C000C0B201909DF804001028EADB4FF6FF71B2
:1030D0000020FFF78BFF002001901AE09DF8080008
:1030E00000F0800058B19F4A178807EBD7729DF80F
:1030F000043003EB620291B2A8B2FFF72DFD9DF8F8
:1031000008004006000E02909DF80400401CC0B26A
:1031100001909DF804000828E0DB9DF8140006EB00
:1031200040119DF81000012202EB4000085C029063
:10313000082001901CE037E042E29DF8080000F012
:10314000800058B1874A178807EBD7729DF8043082
:1031500003EB620291B2A8B2FFF7FEFC9DF80800F3
:103160004006000E02909DF80400401CC0B2019081
:103170009DF804001028E0DB7F480088401C90FB8D
:10318000F4F104FB11007C49088000BF6D1CF02D98
:10319000FFF661AFBDF80C00401C90FBF4F104FB9E
:1031A0001100754908800BE20020059004907248D8
:1031B00000880390002500BF99E0A54200DD95E05E
:1031C0006D490888C11700EB1171C1F30711059112
:1031D00069490888C11700EB11710911A0EB0111B1
:1031E000C9B204919DF8140006EB40119DF810003F
:1031F00011F8100002904FF6FF710846FFF7F6FE37
:103200000020019010E0574A178807EBD7729DF80D
:10321000043003EB620291B2A8B2FFF79DFC9DF867
:103220000400401CC0B201909DF804001028EADBA5
:103230004FF6FF710020FFF7D9FE002001901AE041
:103240009DF8080000F0800058B1464A178807EB47
:10325000D7729DF8043003EB620291B2A8B2FFF777
:103260007BFC9DF808004006000E02909DF80400CB
:10327000401CC0B201909DF804000828E0DB9DF8D6
:10328000140006EB40119DF81000012202EB4000F3
:10329000085C0290082001901AE09DF8080000F0F8
:1032A000800058B12F4A178807EBD7729DF8043079
:1032B00003EB620291B2A8B2FFF74EFC9DF8080042
:1032C0004006000E02909DF80400401CC0B2019020
:1032D0009DF804001028E0DB27480088401C90FB84
:1032E000F4F104FB11002449088000BF6D1CF02D8F
:1032F000FFF663AFBDF80C002044401E90FBF4F1D4
:1033000004FB11001C4908805AE10020049003903E
:10331000194800880290002000900027002500BF77
:103320002DE100200090A74200DD2BE11249088822
:10333000C11700EB1171C1F3071104910E49088800
:10334000C11700EB11710911A0EB0111C9B2039172
:103350004FF6FF710846FFF749FE00251AE000000E
:103360001826002012260020102600201C260020EF
:103370001E2600202226002020260020924AB2F895
:10338000008008EBD87205EB620291B2B8B2FFF789
:10339000E3FB6D1C102DF1DB4FF6FF710020FFF7F2
:1033A00025FE9DF8100006EB40119DF80C0011F869
:1033B000100001909DF80400844909788840C0B24B
:1033C0000190824805781CE09DF8040000F0800020
:1033D00060B17D4AB2F8008008EBD872BDF80030C9
:1033E00003EB620291B2B8B2FFF7B6FBBDF8000082
:1033F000401C80B200909DF804004006000E019031
:103400006D1C082DE0DB9DF8100006EB40119DF8C7
:103410000C00012202EB4000085C01906B48007830
:10342000072807DD6948007808389DF804108140B6
:10343000C8B20190654805781CE09DF8040000F0D2
:10344000800060B1604AB2F8008008EBD872BDF825
:10345000003003EB620291B2B8B2FFF77DFBBDF81A
:103460000000401C80B200909DF804004006000E51
:1034700001906D1C102DE0DB55480088F03090FB6A
:10348000F4F104FB110080B20590BDF81400C117DF
:1034900000EB1171C1F307110491BDF81400C117BD
:1034A00000EB11710911A0EB0111C9B203919DF854
:1034B000100006EB40119DF80C0011F8100001906F
:1034C00000251CE09DF8040000F0800060B13E4A39
:1034D000B2F8008008EBD872BDF8003003EB62024E
:1034E00091B2B8B2FFF738FBBDF80000401C80B2C3
:1034F00000909DF804004006000E01906D1C082D00
:1035000003DABDF800001028DCDB9DF8100006EBA4
:1035100040119DF80C00012202EB4000085C019074
:1035200000251CE09DF8040000F0800060B1264AF0
:10353000B2F8008008EBD872BDF8003003EB6202ED
:1035400091B2B8B2FFF708FBBDF80000401C80B292
:1035500000909DF804004006000E01906D1C082D9F
:1035600003DABDF800001028DCDB19480088401C95
:1035700090FBF4F104FB1100154908807F1CF02F2B
:10358000FFF6CFAE00BF114800780F280ED1002003
:103590000E490870BDF808000E490988084490FBE0
:1035A000F4F104FB11000A49088008E0074800789C
:1035B000401C06490870BDF808000549088000BF96
:1035C00000BF06B0BDE8F0811226002023260020AF
:1035D000202600201026002000B585B001210420FF
:1035E000FDF742FD01218803FDF73EFD4FF4007019
:1035F000ADF8100018208DF8130003208DF812008C
:1036000004A92248FDF774FA4FF48060ADF8100069
:1036100004208DF8130004A91C48FDF769FA4FF443
:10362000E13000900020ADF80400ADF80600ADF8E0
:103630000800ADF80C000C20ADF80A0069461448EB
:10364000FDF7B9FD01211248FDF741FE05B000BDAF
:1036500070B504460D46E1B20D48FDF7A5FE00BF6A
:1036600080210B48FDF70EFF0028F9D0204670BDE1
:1036700010B5044600BF20210548FDF703FF0028D0
:10368000F9D00348FDF794FE10BD0000000801408A
:103690000038014008B54FF4E060FCF755FE2620E5
:1036A0008DF8000001208DF801008DF802008DF8E2
:1036B00003006846FCF74DFE08BD00B585B001214A
:1036C0004804FDF7DEFC01210420FDF7CDFC0420B9
:1036D000ADF8100018208DF8130003208DF81200AB
:1036E00004A93A48FDF704FA0820ADF810000420B8
:1036F0008DF8130004A93548FDF7FAF94FF4164088
:1037000000900020ADF80400ADF80600ADF8080008
:10371000ADF80C000C20ADF80A0069462C48FDF706
:103720004AFDFFF7B7FF012240F225512848FDF777
:10373000DAFD01212648FDF7CAFD40212448FDF7A6
:10374000AEFE05B000BD70B504460D4629462046C4
:10375000FDF72AFE00BF80212046FDF793FE0028DA
:10376000F9D070BD2DE9F04107460D4616460024FC
:1037700000BF295D3846FFF7E6FF641CB442F8D36A
:10378000BDE8F08170B506460C46002500BF615DBE
:103790003046FFF7D8FF6D1C605D0028F7D170BD83
:1037A00001460C48008808800B48704740F20140F1
:1037B0000021084A118005E00022411E89B2084616
:1037C000054B5A540028F7D170470000000801400B
:1037D000004400403C2600201D3300201A480068A9
:1037E00040F0807018490860002018494860084679
:1037F000006840F001000860704714484068704756
:1038000031B5002312480068124DB0FBF5F0009D61
:1038100000FB05F400BFFFF7F0FF024611E0FFF7E1
:10382000ECFF014691420CD0914202D9881A034420
:1038300003E0C2F1FF30084403440A46A34200D328
:1038400000E0ECE700BF38BDFCED00E0001000E058
:103850000000002040420F00D2B201E000F8012B2E
:10386000491EFBD270470022F6E710B513460A4600
:1038700004461946FFF7F0FF204610BD30B5054657
:103880002A460B4612F8010B13F8014B08B1A0426F
:10389000F8D01CB1002802D06D1CF1E7284630BDDD
:1038A000CAB2401E10F8011F8A4202D00029F9D185
:1038B00000207047421C10F8011B0029FBD1801A20
:1038C000704710B5002200E0521C835C8C5CA34260
:1038D00001D1002BF8D1D8B2E1B2401A10BD034695
:1038E00011F8012B00F8012B002AF9D11846704776
:1038F00030B505460020034600E05B1C934205D22C
:10390000EC5CC85C201A01D1002CF6D130BD30B57A
:103910000B46014600202022012409E021FA02F58D
:103920009D4205D303FA02F5491B04FA02F5284427
:10393000151EA2F10102F1DC30BD0000064C074D5E
:1039400006E0E06840F0010394E80700984710346F
:10395000AC42F6D3FCF7F0FB5C7800087C780008FA
:1039600070B58D1810F8014B14F0030201D110F856
:10397000012B231106D110F8013B03E010F8016B75
:1039800001F8016B521EF9D1ABB110F8012B04F014
:103990000C048A1A0C2C03D0A2EB84129B1C08E0A6
:1039A00010F8014BA2EB0422F8E712F8014B01F8E2
:1039B000014B5B1EF9D5A942D4D3002070BD000095
:1039C0000148008870470000000002604FF0C041CD
:1039D00008807047014908807047000000000260BD
:1039E0000FB4054B10B503A9044A029800F02CF857
:1039F00010BC5DF814FB0000513600084026002082
:103A00000FB4084B10B504A902AA039800F01CF8E3
:103A1000044602A9002000F0F3F8204610BC5DF82F
:103A200014FB0000013C000802E008C8121F08C196
:103A3000002AFAD170477047002001E001C1121F2F
:103A4000002AFBD1704700002DE9FF4F8BB09A464A
:103A50000F460546002606E025280BD052460D9954
:103A600090476D1C761C28780028F5D10FB03046A1
:103A7000BDE8F08F0024A0460122604900E0044325
:103A800015F8013F203B02FA03F00842F7D12878ED
:103A90002E2817D115F8010F44F004042A280ED05F
:103AA0006FF02F022878A0F1300109290AD808EB1D
:103AB000880102EB410100EB01086D1CF2E757F8A9
:103AC000048B6D1C287869283ED006DC0028CDD0F8
:103AD00063280BD0642804D136E0732810D07528F1
:103AE0004BD052460D999047761C85E017F8040B91
:103AF0008DF8000000208DF80100E946012003E068
:103B000057F8049B4FF0FF3061074FF0000401D4D9
:103B10000AE0641C44450DDA8442FADB19F804100B
:103B20000029F6D106E0641C8442FCDB19F804107D
:103B30000029F8D1264404E019F8010B52460D99EA
:103B40009047641EF8D257E001CF4FF00A0B0028CF
:103B500002DA40422D2102E0210504D52B218DF807
:103B60002410012103E0E10705D02021F7E70DF142
:103B7000200908910CE00021F9E701CF4FF00A0B72
:103B8000F9E75946FFF7C3FE01F1300209F8012DAC
:103B90000028F6D1ADEB090000F1200B600701D43D
:103BA0004FF00108D84502DDA8EB0B0000E0002033
:103BB0008046002406E009A85246005D0D99904712
:103BC000641C761C08988442F5DB04E030205246E1
:103BD0000D999047761CB8F10001A8F10108F5DCB9
:103BE00005E019F8010B52460D999047761CBBF180
:103BF0000001ABF1010BF4DC6D1C34E70928010076
:103C00000A68531C0B601070704700000000000031
:103C1000000000000000000000000000001818185C
:103C200018181808000818000000000000342424A8
:103C30002400000000000000000000000000162426
:103C40007F2424247E2424000000000000083E6815
:103C500048681C1612127C10100000000061D296F9
:103C6000740810162949C6000000000000003C64DA
:103C70006438724ACE467F00000000000018181811
:103C800018000000000000000000000000040818F8
:103C900010303030301010180C04000000201008D4
:103CA000080C0404040C08181020000000080A3452
:103CB0001C6A080000000000000000000000000076
:103CC0001818187F181818000000000000000000E5
:103CD000000000000018180830000000000000007C
:103CE0000000003C00000000000000000000000098
:103CF0000000000000181800000000000002060488
:103D00000C080810102020400000000000003C6655
:103D100042475B7342663C000000000000001878D8
:103D20004808080808087E000000000000003C4623
:103D30000606040810207E000000000000007C063B
:103D400006043C0202067C000000000000000C1C7F
:103D500014246444FF0404000000000000007E609E
:103D600060607E0202067C000000000000001E3041
:103D70006048764242623C000000000000007E0283
:103D800006040C08181030000000000000003C621F
:103D900042361C6642423C000000000000003C66C7
:103DA0004242661A02047800000000000000000091
:103DB00018180000001818000000000000000000A3
:103DC000181800000018180830000000000000005B
:103DD00004183060100C0600000000000000000015
:103DE00000007E007E0000000000000000000000D7
:103DF000301804060C1020000000000000301C06E3
:103E0000060618100010100000000000001C2241DF
:103E100041DDB5A5A5AF94C0403C00000000181CD2
:103E2000342426627E43C1000000000000007C466E
:103E300042467C4242427C000000000000001E20FE
:103E40004040404040603E000000000000007C46D2
:103E500042434343424678000000000000007E6079
:103E600060607E6060607E000000000000007E6098
:103E700060607E60606060000000000000001E6006
:103E80004040CE4242623E0000000000000042423C
:103E900042427E42424242000000000000007E1882
:103EA0001818181818187E000000000000007C0484
:103EB00004040404044478000000000000004244AC
:103EC000485070584C444200000000000000202080
:103ED0002020202020203E0000000000000062661C
:103EE000675F5B5BC1C1C10000000000000062624F
:103EF00072525A4A4E4646000000000000003C62E2
:103F000043C3C3C343623C000000000000007C4682
:103F100042424678404040000000000000003C6201
:103F200043C3C3C343623C180F00000000007C661B
:103F300062667C6C646662000000000000003E6007
:103F400040601C0602027C000000000000007F1898
:103F50001818181818181800000000000000424235
:103F60004242424242623C00000000000000C14365
:103F700042622624341C1800000000000000C1C169
:103F800041495B5B76666600000000000000436606
:103F90003418181C2466C300000000000000C14251
:103FA00066341C18181818000000000000007E027B
:103FB000040C181020607E0000000000001C10108F
:103FC0001010101010101010101C000000402020C5
:103FD000101008080C04060200000000003C0C0C45
:103FE0000C0C0C0C0C0C0C0C0C3C00000000181CF5
:103FF000246200000000000000000000000000003B
:10400000000000000000000000FF00000020100081
:1040100000000000000000000000000000000000A0
:104020003C06023E42467A0000000000004040404C
:104030005C62424242427C0000000000000000003E
:104040001E20604060203E000000000000020202CE
:104050003E62424242663A0000000000000000005A
:104060003C62427E40603E0000000000000F1810DD
:10407000107E101010101000000000000000000062
:104080003F66426658403E43423C0000004040408C
:104090005C624242424242000000000000181800E8
:1040A0007808080808087E000000000000040C00E2
:1040B0007C040404040404040C78000000606060C4
:1040C000626C787068646200000000000078080884
:1040D0000808080808087E00000000000000000032
:1040E000764B4B4B4B4B4B00000000000000000098
:1040F0005C624242424242000000000000000000B8
:104100003C62424342623C000000000000000000AC
:104110005C62424242427C4040400000000000009D
:104120003E62424242663A02020200000000000083
:104130006E726360606060000000000000000000BC
:104140003E20203C06027C00000000000000101011
:10415000FE10101010101E000000000000000000F3
:104160004242424242663A00000000000000000065
:1041700043426624341818000000000000000000CC
:10418000C1C15B5A5E6666000000000000000000CE
:1041900062261C181C2662000000000000000000BF
:1041A00043426624341C181830E000000000000070
:1041B0007E060C1810207E0000000000000E181073
:1041C0001010307010101010180E000008080808A9
:1041D000080808080808080808080000003018083F
:1041E00008080C0E0808080818300000000000003D
:1041F0000000714B060000000000000000000000FD
:1042000000000000000000000000000000000000AE
:10421000000000000000000000000000000000009E
:10422000000000000000000000000000000000008E
:104230000000000003800180018001800180018076
:1042400001800180018001800000000003C003C0E4
:10425000000000000000000000000000000000005E
:10426000000000000E700E700E700C300000000098
:10427000000000000000000000000000000000003E
:10428000000000000000000000000000000000002E
:104290000000000000000618063806307FFE0C30D3
:1042A0000C300C300C307FFE0C601C601860186005
:1042B00000000000000000000000000000000000FE
:1042C000000000C000C00FF83CC831C031803D8004
:1042D0001F8003F001F8031C030C031C3FF83FE0B0
:1042E00007000600000000000000000000000000C1
:1042F00000001C007E0E630C631863307E6000C0FB
:1043000001800300077C0EE61CC618C630C6607C20
:10431000000000000000000000000000000000009D
:10432000000000000FE01CF0387038701C601FC0E7
:104330000F003F8C71CC60EC607C70383CFC1FCE71
:10434000000000000000000000000000000000006D
:104350000000000003C00180018001800000000017
:10436000000000000000000000000000000000004D
:10437000000000000000000000000000000000003D
:104380000000003000E001C00180030007000600CB
:1043900006000E000E000E000E00060007000300CF
:1043A000038001C000E000300000000000000000B9
:1043B00000000C0006000380018001C000E00060E6
:1043C00000600070007000700060006000E000C0DD
:1043D0000180038006000C000000000000000000C7
:1043E00000000000018011881DB803C007E03DBC3B
:1043F00001880180000000000000000000000000B3
:1044000000000000000000000000000000000000AC
:104410000000000000000000000001800180018019
:10442000018001807FFE0180018001800180000009
:10443000000000000000000000000000000000007C
:10444000000000000000000000000000000000006C
:104450000000000000000000000003C003C001C015
:1044600001C003801F0000000000000000000000E9
:10447000000000000000000000000000000000003C
:10448000000000000FF0000000000000000000002D
:10449000000000000000000000000000000000001C
:1044A000000000000000000000000000000000000C
:1044B0000000000000000000000003C003C003C0B3
:1044C00000000000000000000000000000000000EC
:1044D00000000000001800380030006000E000C05C
:1044E00001C001800300030006000E000C001C0048
:1044F0001800300000000000000000000000000074
:104500000000000001800FF01C38381C301C707E49
:1045100070EE738E7E0E7C0C300C381C1E780FE013
:10452000000000000000000000000000000000008B
:1045300000000000000007C01FC039C001C001C05A
:1045400001C001C001C001C001C001C03FFC3FFC6F
:10455000000000000000000000000000000000005B
:104560000000000003801FF01838003800180038E1
:104570000038007001E0038007001C003FFC3FFC96
:10458000000000000000000000000000000000002B
:104590000000000007801FF00038003800380030AD
:1045A00007E007F00038001C001C001820F83FE06E
:1045B00000000000000000000000000000000000FB
:1045C00000000000000000F001B0033007300E30A2
:1045D0001C30383070307FFE7FFE003000300030FD
:1045E00000000000000000000000000000000000CB
:1045F0000000000000001FF8180018001800180044
:104600001FE000F8001C001C001C003800F01FC058
:10461000000000000000000000000000000000009A
:1046200000000000000003F80F001C00180030001C
:1046300037F83C3C300C300C380C381C1E380FF06E
:10464000000000000000000000000000000000006A
:104650000000000000003FFC001C00180038007043
:10466000006000E001C001800380070006000E002A
:10467000000000000000000000000000000000003A
:104680000000000003C01FF8381C381C381C1C3800
:104690000FF007F01C78381C300C381C3C380FF039
:1046A000000000000000000000000000000000000A
:1046B0000000000003801FF03838301C701C700CA4
:1046C000380C1FFC0FCC001C001800701FE01F806E
:1046D00000000000000000000000000000000000DA
:1046E00000000000000000000000000003C003C044
:1046F0000180000000000000000003C003C003C0F0
:1047000000000000000000000000000000000000A9
:1047100000000000000000000000000003C003C013
:104720000180000000000000000003C003C001C0C1
:1047300001C003800F000000000000000000000026
:1047400000000000000000000000003800F001C080
:1047500007001E0038000E00078001C00070003006
:104760000000000000000000000000000000000049
:104770000000000000000000000000000000000039
:104780003FFC000000003FFC3FFC00000000000078
:104790000000000000000000000000000000000019
:1047A000000000000000000000001C000F0003805B
:1047B00001E00078001C007001E003800E000C0096
:1047C00000000000000000000000000000000000E9
:1047D000000000000FC000F000380038003800383A
:1047E00003F003800300030000000000078007803F
:1047F00000000000000000000000000000000000B9
:10480000000000E007F80C0C18063006700363F394
:104810006633C673CC63CC62CC66CCE6C7FCE000E2
:104820006000700038101FF0000000000000000061
:1048300000000000000003C007E006E00E700E70EC
:104840000C301C3818183FFC3FFC700E600EE0075F
:104850000000000000000000000000000000000058
:104860000000000000003FF03838381C381C383891
:104870003FF03FF8381C380C380C381C3FF83FE04C
:104880000000000000000000000000000000000028
:104890000000000000E007FC1E0438003800300073
:1048A000700070007000300038003C001F9C07FC56
:1048B00000000000000000000000000000000000F8
:1048C0000000000000003FF03078301C300C300E4B
:1048D000300E300E300E300E301C30383FF03FC0FE
:1048E00000000000000000000000000000000000C8
:1048F0000000000000001FF8180018001800180041
:104900001FF81FF818001800180018001FF81FF8EB
:104910000000000000000000000000000000000097
:104920000000000000001FF8180018001800180010
:104930001FF81FF8180018001800180018001800B9
:104940000000000000000000000000000000000067
:104950000000000000F007FC1E043800300070006A
:10496000700070FC700C700C300C380C1F1C07FCB5
:104970000000000000000000000000000000000037
:10498000000000000000300C300C300C300C300CFB
:104990003FFC3FFC300C300C300C300C300C300C39
:1049A0000000000000000000000000000000000007
:1049B0000000000000003FFC0180018001800180B8
:1049C0000180018001800180018001803FFC3FFC6B
:1049D00000000000000000000000000000000000D7
:1049E0000000000000001FF00030003000300030F8
:1049F0000030003000300030003000701DE01FC07B
:104A000000000000000000000000000000000000A6
:104A1000000000000000381C387038E039C03B80CE
:104A20003F003F003B8039C038E038703838381CD0
:104A30000000000000000000000000000000000076
:104A40000000000000001C001C001C001C001C00DA
:104A50001C001C001C001C001C001C001FFC1FFC78
:104A60000000000000000000000000000000000046
:104A7000000000000000381C7C3C6C3E6E6E666ED0
:104A800066CE63C663866186600660066006600661
:104A90000000000000000000000000000000000016
:104AA0000000000000003C0C3C0C3E0C360C330CAB
:104AB000338C318C31CC30EC306C307C303C301C61
:104AC00000000000000000000000000000000000E6
:104AD0000000000001C00FF81C3C381C700E700E66
:104AE00060066006700E700E700C381C1E780FE0A9
:104AF00000000000000000000000000000000000B6
:104B00000000000000003FF0383C381C380C380C26
:104B1000381C38783FE0380038003800380038005A
:104B20000000000000000000000000000000000085
:104B30000000000001C00FF81C3C381C700E700E05
:104B400060066006700E700E700C381C1E780FE048
:104B5000018001C000FF003C0000000000000000D8
:104B60000000000000003FF0383838183818383896
:104B700038F03FC038E0387038383838381C380ED4
:104B80000000000000000000000000000000000025
:104B90000000000001E00FF83800380038003C0049
:104BA0001F8003F00078001C001C001C38783FE0D8
:104BB00000000000000000000000000000000000F5
:104BC0000000000000007FFE018001800180018064
:104BD00001800180018001800180018001800180CD
:104BE00000000000000000000000000000000000C5
:104BF000000000000000300C300C300C300C300C89
:104C0000300C300C300C300C300C381C1C380FF0D1
:104C10000000000000000000000000000000000094
:104C2000000000000000E006700E700E381C381CFA
:104C30001C181C380C300E70066007E003C003C05F
:104C40000000000000000000000000000000000064
:104C500000000000000060066006600660066186D5
:104C6000638673C673CE766C366C3C3C3C3C381C19
:104C70000000000000000000000000000000000034
:104C8000000000000000301C38181C380E7007E0CF
:104C900003C003C007E00E701C381838381C700EB3
:104CA0000000000000000000000000000000000004
:104CB000000000000000700E700C381C1C380E70D4
:104CC000066007E003C0018001800180018001804F
:104CD00000000000000000000000000000000000D4
:104CE0000000000000003FFC001C0038007000E0E5
:104CF00001C0038007000E000C0018003FFC3FFCC1
:104D000000000000000000000000000000000000A3
:104D1000000007F007F00600060006000600060087
:104D20000600060006000600060006000600060053
:104D300006000600060007F000000000000000006A
:104D40000000000018001C000C0006000700030013
:104D50000380018001C000C0006000700030003896
:104D60000018000C0000000000000000000000001F
:104D700000000FE00FE00060006000600060006075
:104D80000060006000600060006000600060006023
:104D90000060006000600FE0000000000000000004
:104DA00000000000000003C006C006600C301818A8
:104DB000301C0000000000000000000000000000A7
:104DC00000000000000000000000000000000000E3
:104DD00000000000000000000000000000000000D3
:104DE00000000000000000000000000000000000C3
:104DF000000000000000FFFF0000000000000000B5
:104E0000000000001E000380000000000000000001
:104E10000000000000000000000000000000000092
:104E20000000000000000000000000000000000082
:104E30000000000000000000000000001FF010381B
:104E4000001C001C0FFC1C1C381C381C3CFC1FDC0C
:104E50000000000000000000000000000000000052
:104E60000000000038003800380038003BF83E1CD5
:104E70003C1C380C380C380C380C381C3C781FE0C3
:104E80000000000000000000000000000000000022
:104E900000000000000000000000000007F80E0005
:104EA0001C0038003800380038001C000F1807F8C4
:104EB00000000000000000000000000000000000F2
:104EC00000000000001C001C001C001C0FFC1C1C2F
:104ED000381C301C301C301C301C383C1CFC0F9C17
:104EE00000000000000000000000000000000000C2
:104EF0000000000000000000000000000FF01C385F
:104F0000381C300C3FFC3000300038001E0C07FC11
:104F10000000000000000000000000000000000091
:104F20000000003C01FE03800300030003007FFC3F
:104F30007FFC0300030003000300030003000300E1
:104F40000000000000000000000000000000000061
:104F50000000000000000000000000000FFE1C38F0
:104F60003818381818381FF03B8030003FF01FFC0D
:104F7000300E700E381C1FF800000000000000000A
:104F80000000000038003800380038003BF83E3898
:104F90003C1C381C381C381C381C381C381C381C6D
:104FA0000000000000000000000000000000000001
:104FB0000000018003C003C0000000001FC001C04A
:104FC00001C001C001C001C001C001C001C03FFC5F
:104FD00000000000000000000000000000000000D1
:104FE0000000002000700070000000003FF0007022
:104FF0000070007000700070007000700070007031
:105000000070007020E03FC00000000000000000C1
:10501000000000001800180018001800183C187054
:1050200018E01B801F001B8019E018701838181C2E
:105030000000000000000000000000000000000070
:10504000000000001FC001C001C001C001C001C0BC
:1050500001C001C001C001C001C001C001C03FFCCE
:105060000000000000000000000000000000000040
:105070000000000000000000000000006F3C79EE1E
:1050800071CE718E718E718E718E718E718E718EE8
:105090000000000000000000000000000000000010
:1050A0000000000000000000000000003BF83E3857
:1050B0003C1C381C381C381C381C381C381C381C4C
:1050C00000000000000000000000000000000000E0
:1050D0000000000000000000000000000FF01C3C79
:1050E000381C700E700E700E700C381C1E780FE09D
:1050F00000000000000000000000000000000000B0
:105100000000000000000000000000003BF83E1C12
:105110003C1C380C380C380C380C381C3C783FE000
:10512000380038003800380000000000000000009F
:105130000000000000000000000000000FFC1C1C2C
:10514000381C301C301C301C301C383C1CFC0F9CA4
:10515000001C001C001C001C0000000000000000DF
:1051600000000000000000000000000019F81F1CF3
:105170001C0C180E18001800180018001800180051
:10518000000000000000000000000000000000001F
:105190000000000000000000000000000FF81C00EC
:1051A00018001E000FC001F80018001818381FF072
:1051B00000000000000000000000000000000000EF
:1051C0000000000000000600060006007FFC06004C
:1051D000060006000600060006000700078401FC22
:1051E00000000000000000000000000000000000BF
:1051F000000000000000000000000000381C381C07
:10520000381C381C381C381C381C383C1CFC0FDC83
:10521000000000000000000000000000000000008E
:10522000000000000000000000000000700C381CAE
:1052300038181C380C300E70066007E003C003C03D
:10524000000000000000000000000000000000005E
:105250000000000000000000000000006006600682
:105260006186738E73CC33CC366C366C3C3C3C38E8
:10527000000000000000000000000000000000002E
:10528000000000000000000000000000381C1C3876
:105290000E7007E003C003C007E00E701C38381E14
:1052A00000000000000000000000000000000000FE
:1052B000000000000000000000000000700C381C1E
:1052C00038181C380C300E70066007E003C003C0AD
:1052D000038007000E007C000000000000000000BA
:1052E0000000000000000000000000001FF800386F
:1052F000007000E001C0038007000C001FFC3FFCB1
:10530000000000000000000000000000000000009D
:105310000000007801F8038003800380038003808D
:1053200003003F003E0003000380038003800380EE
:105330000380038001C000F800000000000001802D
:105340000180018001800180018001800180018055
:105350000180018001800180018001800180018045
:105360000180018001800180000000000000000039
:1053700000001E001F80018001C001C001C001C0EB
:1053800000C000FC007C00C001C001C001C001C021
:1053900001C001C003801F000000000000000000E9
:1053A00000000000000000000000000000000000FD
:1053B0001C003F0671CE60FC0000000000000000F1
:1053C00000000000000000000000000000000000DD
:1053D00000000000000000000000000000000000CD
:1053E00000000000000000000000000000000000BD
:1053F00000000000000000000000000000000000AD
:10540000000000000000000000000000000000009C
:10541000000000000000000000000000000000008C
:10542000000000000000000000000000000000007C
:10543000000000000000000000000000003C000030
:105440003C00003C00003C00003C00003C00003CF4
:1054500000003C00003C00003C00003C00003C0020
:10546000003C00003C00000000000000003C000088
:105470007E00003C00000000000000000000000072
:10548000000000000000000000000000000000001C
:1054900000000000000000000000000003C3E00363
:1054A000C3E003C3C003C3C003C3C003C3C003C17D
:1054B000C00000000000000000000000000000002C
:1054C00000000000000000000000000000000000DC
:1054D00000000000000000000000000000000000CC
:1054E00000000000000000000000000000000000BC
:1054F00000000000000000000000000000000000AC
:10550000000001E0E001C0E001C0E001C0E03FFFB9
:10551000FE3FFFFE03C1C00381C00381C00381C001
:105520007FFFFC7FFFFC0783800703800703800762
:10553000038007078000000000000000000000005A
:10554000000000000000000000000000000000005B
:10555000000000000000000000000700000F000035
:105560000E0001FFF007FFF01F0E001E1E001E1CA4
:10557000001E1C000FDC0007FC0000FF80003FF055
:105580000038F800387800783C0070783071F83FC7
:10559000FFE01FFF0000E00000E00000E00000006E
:1055A00000000000000000000000000000000000FB
:1055B0000000000000000000000000000F800F3F0E
:1055C000E01E78703C7070707070E07071C03FE3E6
:1055D000801FC700000E00001C0000780000F0F0E3
:1055E00001E7FC03CF0E078E0E0F0E0E1E0E0E3CB3
:1055F00007BC7003F800000000000000000000007D
:10560000000000000000000000000000000000009A
:105610000000000000000000000000000000000189
:10562000FF0007FF800F03C00F03C00F03C00F0769
:1056300080079F0003FE0003F0000FF83C3E7C3C17
:105640003C1F3C780FF87807F87C01F03E03F81F08
:10565000FFFC07FE1F00000000000000000000002B
:10566000000000000000000000000000000000003A
:10567000000000000000000000000000003E0000EC
:105680003C00003C00003C00003C00003C00003CB2
:10569000000000000000000000000000000000000A
:1056A00000000000000000000000000000000000FA
:1056B00000000000000000000000000000000000EA
:1056C00000000000000000000000000000000000DA
:1056D0000000000000000000000000800001C00089
:1056E0000780000F00001E00003C0000780000F062
:1056F0000000E00001E00001E00001C00003C00084
:1057000003C00001C00001E00001E00000F0000063
:10571000F000007800003C00001E00000F000007B1
:10572000C00001C0000000000000000000000000F8
:1057300000000000000000000000000003C00001A5
:10574000E00000F000007C00003E00001E00000FA2
:10575000000007800007800003800003C00003C032
:105760000003C00003C00003800007800007800022
:105770000F00001E00003C0000780000F00001E077
:105780000003800000000000000000000000000096
:10579000000000000000000000000000001C0000ED
:1057A0001C000018000F18F007DBE0007F0000FF6E
:1057B0000007DBE00E1870001800001C00001C0041
:1057C00000000000000000000000000000000000D9
:1057D00000000000000000000000000000000000C9
:1057E00000000000000000000000000000000000B9
:1057F00000000000000000000000000000000000A9
:105800000000000000000000000000003C00003C20
:1058100000003C00003C00003C00003C003FFFFC5E
:105820003FFFFC003C00003C00003C00003C00004E
:105830003C0000000000000000000000000000002C
:105840000000000000000000000000000000000058
:105850000000000000000000000000000000000048
:105860000000000000000000000000000000000038
:105870000000000000000000000000000000000028
:10588000000000000000000000007C00007E00001E
:105890007E00003E00001E00003C0000F80007E013
:1058A00000040000000000000000000000000000F4
:1058B00000000000000000000000000000000000E8
:1058C00000000000000000000000000000000000D8
:1058D0000000000000000000000000000003FFE0E6
:1058E00003FFE000000000000000000000000000D6
:1058F00000000000000000000000000000000000A8
:105900000000000000000000000000000000000097
:105910000000000000000000000000000000000087
:105920000000000000000000000000000000000077
:105930000000000000000000000000000000000067
:10594000000000000000000000007C0000FE0000DD
:10595000FE00007E000000000000000000000000CB
:105960000000000000000000000000000000000037
:1059700000000000000000000000000000007800AF
:1059800000F00000E00001E00003C0000380000719
:1059900080000F00000E00001E00003C00003800D8
:1059A00000700000F00000E00001C00003C000072C
:1059B00080000700000F00001E00001C0000000017
:1059C00000000000000000000000000000000000D7
:1059D00000000000000000000000000000000000C7
:1059E000000001FFC007FFE00F00F01E00781E005E
:1059F0003C3C00FC3C07FC3C1FBC3C7C1C3DF03CA0
:105A00003FC03C3F003C1E00381E00780F80F0076E
:105A1000FFE001FF80000000000000000000000027
:105A20000000000000000000000000000000000076
:105A30000000000000000000000000000000000066
:105A40000000007E0003FE001FDE000E1E00001E90
:105A500000001E00001E00001E00001E00001E00B0
:105A6000001E00001E00001E00001E00001E000F91
:105A7000FFF80FFFF8000000000000000000000029
:105A80000000000000000000000000000000000016
:105A90000000000000000000000000000000000006
:105AA000000003FF800FFFE00E01F00000F0000097
:105AB000F00000F00000F00001E00003C0000F80E3
:105AC000003E00007C0001F00003C0000F80001FBA
:105AD000FFFC1FFFFC0000000000000000000000B1
