:020000040800F2
:10000000304F00204501000887150008091100083D
:1000100085150008390200086D1600080000000070
:100020000000000000000000000000008B15000828
:10003000FD05000800000000891500088D15000866
:100040005F0100085F0100085F0100085F01000810
:100050005F0100085F010008010600085F01000859
:100060005F0100085F0100085F0100085F010008F0
:100070005F0100085F0100085F0100085F010008E0
:100080005F0100085F0100085F0100085F010008D0
:100090005F0100085F0100085F0100085F010008C0
:1000A0005F0100085F0100085F0100085F010008B0
:1000B0005F0100085F0100085F0100085F010008A0
:1000C0005F0100085F0100085F0100085F01000890
:1000D0005F0100085F0100085F0100085F01000880
:1000E0005F0100085F0100085F0100085F01000870
:1000F0005F0100085F0100085F0100085F01000860
:100100005F0100085F0100085F0100085F0100084F
:100110005F0100085F0100085F0100085F0100083F
:100120005F0100085F0100085F0100085F0100082F
:10013000DFF80CD000F02AF800480047AD160008A0
:10014000304F00200648804706480047FEE7FEE79C
:10015000FEE7FEE7FEE7FEE7FEE7FEE7FEE7FEE777
:10016000DF15000831010008D2B201E000F8012BD0
:10017000491EFBD270470022F6E710B513460A4627
:1001800004461946FFF7F0FF204610BD064C074D08
:1001900006E0E06840F0010394E807009847103457
:1001A000AC42F6D3FFF7C8FFB8400008D8400008BB
:1001B00070B58C1810F8015B15F0070301D110F829
:1001C000013B2A1106D110F8012B03E010F8016B56
:1001D00001F8016B5B1EF9D12B0705D40023521ED9
:1001E0000DD401F8013BFAE710F8013BCB1A921C41
:1001F00003E013F8015B01F8015B521EF9D5A1423F
:10020000D8D3002070BD00001CB50A48084900245E
:1002100001604721C0E901144FF47A71C16000F018
:1002200027FF009469460348019400F0E3FE1CBDDB
:1002300000100040E84A0020FEE700002DE9F043EE
:10024000ED4E89B070784FF0080900254FF6FF7821
:1002500006F11407F0B301287CD002287BD1A9460F
:100260008DF818508DF81050B089ADF814000024A6
:10027000B7F84006A0426FDBB08900098DF818007E
:10028000B08900F00F008DF810004046414601F0A3
:100290003FF90025F08805EB500081B2A0B201F0D3
:1002A00023F96D1C102DF5DB4146002001F030F9DB
:1002B0009DF818009DF8101007EB401010F8110081
:1002C0008DF808009DF80800B17888408DF8080086
:1002D000B57848E1FFE78DF814508DF81850B089D3
:1002E000ADF81C005FF00004B7F84006A0427CDBCC
:1002F000B08900098DF81400B08900F00F008DF866
:1003000018009DF814009DF8181007EB401010F825
:1003100011008DF80C004046414601F0F9F88DF8C7
:1003200000500CE09DF80010F08801EB5001A0B2E5
:1003300001F0DAF89DF80000401C8DF800009DF8EF
:1003400000001028EED34146002001F0E1F88DF8BE
:10035000005019E059E0F1E038E100BF9DF80C00D1
:10036000000607D59DF80000F18800EB5101A0B20E
:1003700001F0BAF89DF80C0040008DF80C009DF8D3
:100380000000401C8DF800009DF800000828E5D30F
:100390009DF814009DF8181007EB401000EB410089
:1003A00040788DF80C00484614E000BF9DF80C0022
:1003B000000607D59DF80000F18800EB5101A0B2BE
:1003C00001F092F89DF80C0040008DF80C009DF8AB
:1003D0000000401C8DF800009DF800001028E5D3B7
:1003E000B7F84016B089401C00E004E0B0FBF1F221
:1003F00001FB1200B081641CF02CFFF675AFB7F85A
:100400004016BDF81C00401CF1E08DF814508DF82A
:100410001850B089ADF81C005FF00004B7F8400632
:10042000A0427CDBB08900098DF81400B08900F08F
:100430000F008DF818009DF814009DF8181007EBB8
:10044000401010F811008DF80C004046414601F0B4
:100450005FF88DF800500CE09DF80010F08801EB7B
:100460005001A0B201F040F89DF80000401C8DF84A
:1004700000009DF800001028EED34146002001F056
:1004800047F88DF8005015E09DF80C00000607D5E0
:100490009DF80000F18800EB5101A0B201F024F8B2
:1004A0009DF80C0040008DF80C009DF80000401CE9
:1004B0008DF800009DF800000828E5D39DF8140091
:1004C0009DF8181007EB401000EB410040788DF8C4
:1004D0000C00484614E000BF9DF80C00000607D54C
:1004E0009DF80000F18800EB5101A0B200F0FCFF84
:1004F0009DF80C0040008DF80C009DF80000401C99
:100500008DF800009DF800001028E5D3B7F84016DC
:10051000B089401CB0FBF1F201FB1200B081641CF9
:10052000F02CFFF67BAFB7F84006BDF81C10491E53
:10053000014491FBF0F200FB1210B08109B0BDE85C
:10054000F08300BF9DF80800000606D5F08805EB93
:10055000500081B2A0B200F0C7FF9DF80800400033
:100560008DF808006D1C082DECDB9DF818009DF837
:10057000101007EB401000EB410040788DF80800A8
:10058000B078082801D9B57811E008259DF8080051
:10059000000606D5F08805EB500081B2A0B200F04D
:1005A000A3FF9DF8080040008DF808006D1C102D79
:1005B000ECDBB7F84016B089401CB0FBF1F201FB50
:1005C0001200B081641CF02CFFF652AEB0781028F7
:1005D00005D0B078401CB070BDF81400ADE786F8C7
:1005E0000290BDF81400B1880844B7F84016B0FB7B
:1005F000F1F201FB1200A0E70000002070470000AC
:10060000084810B50168C9070AD0074903230A78CA
:10061000521CB2FBF3F403FB14220A7001210160A7
:1006200010BD0000140401400100002030B5B3F5F6
:10063000804F05D06FF0704140F82210002030BD8F
:100640008C690B688D6823434C688989240144EACE
:100650000524234343EA014150F82230014C234052
:100660001943E9E70000F0CF10B50A6850F82230CE
:1006700023F0010340F822308C68082C23D000239B
:100680004A682243CC681C430B6922431A434B69D6
:100690000E4C1A43CB691A430B6A1A434B6A1A432E
:1006A0008B6A1A43CB6A1A430B6B1A438B69134349
:1006B0004A6B09681A4350F82130A343134340F8AA
:1006C0002130002010BD4023DAE700007FFF0F003B
:1006D00030B5D1E9003443EA04138C688D892402D3
:1006E00044EA054423430C8A094D00EB820005EBE4
:1006F000045423430C7D6D0105EB04648969234395
:100700000B43416801F040410B434360002030BD82
:100710000000F0FF30B585B00020009001900290FD
:1007200003901248016800291ED101210160104880
:10073000416941F4807141614069022400F4807094
:1007400004904FF68070CDE90004032569460395B7
:10075000084800F013F84CF6B370CDE90004694680
:100760000395054800F00AF805B030BD5C0600208E
:100770000010024000180140001401402DE9F84F1C
:10078000DFF8C891002409F1040A0AF1040B23469A
:100790000F270BF1040ED1E00125A54006EA050262
:1007A000AA4276D1DFF8A8C14E68A6EB0C086645D0
:1007B0002BD00DDC032E34D005DC36B3012E19D03E
:1007C000022E2FD11BE0112E16D0122E2AD119E0A5
:1007D000B8F5881F19D006DCB8F5803F15D0B8F5FC
:1007E000801F1FD111E0B8F5001F0ED0B8F5041F0F
:1007F00018D10AE0CB6815E0CB681B1D12E0CB686E
:1008000008330FE0CB680C330CE08B682BB1012B65
:100810004FF0080303D0456104E0042302E00561C2
:1008200000E00023FF2A01D8064601E000F104069B
:100830004FEA840501D9A5F12005D6F8008007FA12
:1008400005FC28EA0C0803FA05F548EA0508C6F88D
:1008500000804D68ED0070D53E4DAE6946F0010652
:10086000AE61AD6924F0030605F0010500953A4D2F
:1008700006EB050CDCF80850A607360F07FA06F859
:1008800025EA0805DFF8D480404503D14FF0000881
:1008900025E052E0DFF8C880404502D14FF0010862
:1008A0001DE0DFF8C080404502D14FF0020816E09D
:1008B000DFF8B480404502D14FF003080FE0DFF8C5
:1008C000AC80404502D14FF0040808E0DFF8A0807A
:1008D000404502D14FF0050801E04FF0060808FA44
:1008E00006F848EA0508CCF808804D68D9F8006099
:1008F000ED034D4601D5164300E096432E604D684A
:10090000DAF80060AD03554601D5164300E0964382
:100910002E604D68DBF80060ED025D4601D51643A0
:1009200000E096432E604D68DEF80060AD0275462B
:1009300001D5164300E096432E60641C0A681646F3
:10094000E2407FF429AFBDE8F88F000000040140C9
:10095000000011100010024000000140000801409A
:10096000000C01400010014000140140001801403B
:10097000001C014001488068704700007406002098
:100980000248816802781144816070477406002033
:10099000074810B5016841F010010160032000F024
:1009A00073F8002000F006F800F024F8002010BDD5
:1009B0000020024070B50D4D04464FF47A7128783E
:1009C000B1FBF0F00A490968B1FBF0F000F0FEFA63
:1009D00048B9102C07D200222146501E00F034F8EE
:1009E00000206C6070BD012070BD00007406002006
:1009F000800600200B4808B5816941F00101816142
:100A0000816901F001010091C16941F08051C1612A
:100A1000C06900F0805000900348416821F0E06117
:100A2000416008BD0010024000000140002809DBC1
:100A300000F01F02012191404009800000F1E020F8
:100A4000C0F8001170470000F0B40E4B1B680C4654
:100A5000C3F30223C3F10705042D00D90425191D92
:100A6000072901D2002300E0DB1E012606FA05F16A
:100A7000491E214099409E40761E16403143F0BCED
:100A800000F0F5BD0CED00E0064900F00702086833
:100A90004FF6FF03184040EA0220034A1043086063
:100AA000704700000CED00E00000FA052DE9F0476A
:100AB0000F46050061D0434E306800F00700B84291
:100AC00009D2306820F0070038433060306800F009
:100AD0000700B84251D128683B4C810712D5400726
:100AE00003D5606840F4E06060602878000703D5B3
:100AF000606840F4605060606068A96820F0F000B1
:100B0000084360602878C00728D06868012810D0A2
:100B10002168022810D0890700292EDA616821F0A7
:100B2000030101436160FFF725FF804641F28839E8
:100B30000DE021688903EFE78901EDE7FFF71AFF70
:100B4000A0EB0801494502D90320BDE8F0876068A1
:100B5000696800F00C00B0EB810FEFD1306800F055
:100B60000700B8420BD9306820F0070038433060E6
:100B7000306800F00700B84201D00120E5E728788E
:100B8000400705D56068E96820F4E06008436060CC
:100B90002878000706D56068296920F4605040EA8B
:100BA000C100606000F018F86168084AC1F30311E1
:100BB000515CC8400649086006480068FFF7FAFE25
:100BC0000020C2E70020024000100240A8400008B8
:100BD000800600207806002012A185B00FC98DE89C
:100BE0000F0014A0144A006804905168134801F0E3
:100BF0000C03042B10D0082B0ED1C1F38343C9037F
:100C00001DF803000AD5516804AAC1F34041515CA4
:100C10000A4A5043B0FBF1F005B070470849484319
:100C2000FAE7000002030405060708090A0B0C0D89
:100C30000E0F1010010200000010024000127A0096
:100C400000093D002DE9F84F040070D02078C04D18
:100C5000C00749D06868C0F38100012807D06868E0
:100C6000C0F38100022809D16868C00306D528684E
:100C7000800339D560680028E7D035E06068B0F5BA
:100C8000803F0BD010B1B0F5A02F11D0286820F410
:100C900080302860286820F4802002E0286840F432
:100CA00080302860606890B1FFF764FE06460AE075
:100CB000286840F480202860F0E700BFFFF75AFE64
:100CC000801B642873D828688003F7D50CE0FFF7F1
:100CD00051FE064605E000BFFFF74CFE801B64286E
:100CE000F0D828688003F7D420789A4E80074FF018
:100CF00001094FF0000839D5686810F00C0F07D0D3
:100D00006868C0F38100022809D16868C00306D46E
:100D10002868800714D52069012808D110E02069CF
:100D2000B0B1C6F80090FFF725FE074605E00AE1DE
:100D3000FFF720FEC01B0228C4D828688007F7D51B
:100D40002868616920F0F80040EAC10028600DE0E1
:100D5000C6F80080FFF70EFE074604E0FFF70AFE24
:100D6000C01B022823D828688007F7D42078000702
:100D70002CD57948A169D9B1C0F80090FFF7FAFDE8
:100D8000074604E0FFF7F6FDC01B02280FD8686A8B
:100D90008007F7D571484FF4FA510068B0FBF1F0C5
:100DA000009000BF0098411E0091FAD20EE080E052
:100DB000C0F80080FFF7DEFD074604E0FFF7DAFD2C
:100DC000C01B022875D8686A8007F7D420784007CE
:100DD00060D5E8690027C00008D4E86940F0805079
:100DE000E861E869012700F0805000905C480168E4
:100DF000C90513D40168834641F480710160FFF78F
:100E0000B9FD824606E000BFFFF7B4FDA0EB0A0083
:100E100064284ED8DBF80000C005F5D5E06801284D
:100E20000AD008B1052813D0286A20F001002862F2
:100E3000286A20F0040002E0286A40F001002862DD
:100E4000E06841F2883B98B1FFF794FD82460BE0E1
:100E5000286A40F004002862EEE700BFFFF78AFD31
:100E6000A0EB0A0159455AD8286A8007F6D50CE04C
:100E7000FFF780FD824605E0FFF77CFDA0EB0A014D
:100E800059454CD8286A8007F6D41FB1E86920F08C
:100E90008050E861E06988B36968C1F38101022983
:100EA00044D00228C6F8608004D0FFF763FD0446F2
:100EB00038E034E0FFF75EFD074604E0FFF75AFD37
:100EC000C01B02282BD828688001F7D4206AB0F50F
:100ED000803F05D16868A16820F40030084368604D
:100EE000D4E908010843696821F474110843686073
:100EF000C6F86090FFF73EFD044606E025E000BF1F
:100F0000FFF738FD001B022809D828688001F7D5B3
:100F10001BE000BFFFF72EFD001B022802D90320B3
:100F2000BDE8F88F28688001F4D40EE00128F7D0DE
:100F30006868226A00F48031914204D1616A00F449
:100F40007010884201D00120EAE70020E8E70000A5
:100F5000001002400000424280044242800600200D
:100F60000070004070B515460E46040007D0A06919
:100F7000B0F5807F03D094F8410010B107E0012064
:100F800070BD002084F84000204600F01DF804F1F8
:100F900008012068FFF768FB3146A2682068FFF768
:100FA00097FBD4E901022946236BFFF73FFBA168B9
:100FB000206850F8212042F0010240F82120012051
:100FC00084F84100002070BDFFF7A4BB10B5401E9F
:100FD000B0F1807F01D3012010BD4FF0E0246061AB
:100FE0000F21601700F043FB0020A0610720206163
:100FF000002010BD70B590F83C20012A2CD00124AF
:1010000080F83C40022280F83D2003685A689D68C1
:1010100022F070060A6832435A60104B02689A4206
:101020000ED00F4B9A420BD0B2F1804F08D00D4B2F
:101030009A4205D00C4B9A4202D00C4B9A4204D1F2
:10104000496825F080031943916080F83D400021F4
:1010500080F83C10084670BD022070BD002C014095
:10106000003401400004004000080040000C004033
:1010700010B5040003D094F83D0010B107E0012042
:1010800010BD002084F83C00204600F01FF802202C
:1010900084F83D00211D206800F0A2FA012084F8A8
:1010A000460084F83E0084F83F0084F8400084F84D
:1010B000410084F8420084F8430084F8440084F836
:1010C000450084F83D00002010BD0000094808B527
:1010D000C16941F01001C161C069002200F0100037
:1010E000009001213620FFF7AFFCBDE80840362014
:1010F000FFF79CBC0010024002480168491C0160D7
:101100007047000058060020FEE70000034908B1C0
:10111000080601E04FF48050086070471014014049
:1011200070B51C46154600F0EBF8044905FB04F0C9
:101130004989BDE8704000F03BB800000000002085
:1011400001B5009801E0401E00900028FBD108BDC9
:1011500010B515484FF0204100F1480201601349D5
:101160004160002108231160C2E90113D1605C06CF
:101170001161C2E905148160C0E903131022C0E9BE
:1011800005211202C161C0E90912C1620163416314
:10119000816300F01BF8044ABDE810404832114654
:1011A0000148FFF7DFBE0000844A0020040100A0D0
:1011B00010B500222C23DC062380034B01E01980AC
:1011C000521C8242FBD310BD0000026070B5234860
:1011D00086B0816941F020018161816901F02001BF
:1011E0000491816941F040018161816901F0400110
:1011F0000491816941F080018161816901F0800180
:101200000491416941F4807141614069144D00F4D9
:1012100080700490012001900290032003904FF40D
:101220008050009069462846FFF7A8FA0D4E022428
:10123000694630460094FFF7A1FA4CF6B370CDE949
:10124000000469462846FFF799FA4FF6807000902F
:1012500069463046FFF792FA06B070BD00100240B2
:10126000001401400018014010B507282BD8184978
:10127000C4074FF0F00208704FF4A07324D08B80A5
:10128000CA8036231A071380082343EA4013114803
:1012900003802A2313800023038003808B885B1E36
:1012A000C3F307240480DBB203802B2313800023C5
:1012B00003800380C988491EC1F307230380C9B294
:1012C00001802C20108010BD8A80CB80D9E70000DF
:1012D000000000200000026010B5FFF777FFFFF765
:1012E00037FF0120FFF712FF00F0E6F800F028F8C2
:1012F00002480078BDE81040FFF7B6BF00000020AC
:1013000070B54FF0C0452A242C800C4C060A26806C
:10131000C6B226801044401E020A2280C0B220803D
:101320002B202880080A2080C8B22080C818401EC0
:10133000010A2180C0B2208070BD00000000026060
:1013400010B54FF0C044CF202080594800210180C3
:101350008121018030210180ED21218064210180E3
:10136000032101801221018081210180E821218057
:10137000852101801021018078210180CB212180ED
:10138000392101802C21018000210180342101803C
:1013900006210180F721218020210180EA2121807E
:1013A000002101800180B1212180002101801B21C9
:1013B0000180B62121800A210180A2210180C02163
:1013C000218035210180C121218011210180C52189
:1013D0002180452101800180C7212180A221018037
:1013E000F22121800021018026212180012101801C
:1013F000E02121800F21018026210180242101800C
:101400000B2101800E2101800921018054210180DE
:10141000A8210180462101800C2101801721018033
:10142000092101800F210180072101800021018015
:10143000E121218000210180192101801B210180EF
:101440000421018010210180072101802A210180CF
:10145000472101803921018003210180062101807B
:10146000018030210180382101800F210180362147
:101470002180C82101802A21218000210180018052
:101480000180EF2101802B2121800021018001803A
:10149000012101803F2101803A21218055210180D5
:1014A000112020800348FFF74BFE2920208010BD2B
:1014B00000000260FCBF020070B5084C4FF4003021
:1014C000206040F6FF252846FFF73AFE0220206004
:1014D0002846BDE87040FFF733BE000010180140F9
:1014E00001231A46FFF70CBF10B5084CA2889042A2
:1014F0000AD2E288914207D2FFF7F2FF2189BDE8C4
:1015000010400120FFF754BE10BD00000000002075
:10151000014A108151817047000000200149086193
:101520007047000000000020154808B5816941F0AF
:1015300040018161816901F040010091816941F0C0
:1015400010018161816901F010010091816941F010
:1015500004018161816901F004010091816941F018
:1015600008018161816901F008010091816941F000
:1015700020018161806900F02000009008BD00001A
:1015800000100240FEE7704770477047FFF7F8B958
:1015900030B58FB028216846FEF7EDFD14210AA86A
:1015A000FEF7E9FD01210804CDE9001000240294B2
:1015B00002250491CDE907504FF4C0100990684608
:1015C000FFF740FB0F20CDE90A056802CDE90C408A
:1015D00002210AA80E94FFF769FA0FB030BD7047D8
:1015E000F0B502681C4B1D4D1D4E1E4F1E4C4FF09A
:1015F000804C984209D0A04207D0604505D0A8424F
:1016000003D0B04201D0B84204D122F0700E4A6833
:1016100042EA0E02984209D0A04207D0604505D0A8
:10162000A84203D0B04201D0B84203D122F44075A1
:10163000CA682A434D6922F080022A4302608A6800
:10164000C2620A688262984201D0A04201D109694F
:10165000016301214161F0BD002C01400004004004
:1016600000080040000C004000340140FEE709077C
:10167000090E002804DB00F1E02080F80014704718
:1016800000F00F0000F1E02080F8141D704702E028
:1016900008C8121F08C1002AFAD1704770470020FD
:1016A00001E001C1121F002AFBD17047FFF770F95A
:1016B000FFF76EFFFEF7A8FDFFF736FFFFF70CFE02
:1016C0000420FFF7D1FD0F48FFF728FF0E48002147
:1016D00003880E4802880846FFF722FD4FF6FF7187
:1016E0000020FFF715FF0A4C42F210752068B0FB8E
:1016F000F5F105FB110008B9FEF7A0FD0548FFF75D
:10170000FBFCF3E76C06002006000020040000202C
:1017100058060020E84A00200000000000000000F9
:101720000000000000000000000000181818181841
:1017300018080008180000000000003424242400C9
:1017400000000000000000000000000016247F24BC
:1017500024247E2424000000000000083E6848681D
:101760001C1612127C10100000000061D296740842
:1017700010162949C6000000000000003C646438CF
:10178000724ACE467F0000000000001818181800AA
:1017900000000000000000000000000408181030E5
:1017A0003030301010180C04000000201008080C15
:1017B0000404040C08181020000000080A341C6AF5
:1017C00008000000000000000000000000001818E1
:1017D000187F18181800000000000000000000002A
:1017E0000000001818083000000000000000000091
:1017F000003C0000000000000000000000000000AD
:1018000000000018180000000000000206040C0888
:101810000810102020400000000000003C664247F5
:101820005B7342663C000000000000001878480826
:10183000080808087E000000000000003C4606067C
:10184000040810207E000000000000007C06060452
:101850003C0202067C000000000000000C1C142466
:101860006444FF0404000000000000007E6060602B
:101870007E0202067C000000000000001E3060486E
:10188000764242623C000000000000007E02060436
:101890000C08181030000000000000003C624236C6
:1018A0001C6642423C000000000000003C664242D0
:1018B000661A0204780000000000000000001818FA
:1018C00000000018180000000000000000001818B8
:1018D0000000001818083000000000000000041884
:1018E0003060100C06000000000000000000000046
:1018F0007E007E00000000000000000000003018A4
:1019000004060C1020000000000000301C06060633
:1019100018100010100000000000001C224141DDE2
:10192000B5A5A5AF94C0403C00000000181C3424AD
:1019300026627E43C1000000000000007C46424653
:101940007C4242427C000000000000001E2040401B
:10195000404040603E000000000000007C464243E2
:101960004343424678000000000000007E60606053
:101970007E6060607E000000000000007E606060AD
:101980007E60606060000000000000001E6040405B
:10199000CE4242623E00000000000000424242424D
:1019A0007E42424242000000000000007E181818EB
:1019B000181818187E000000000000007C040404C1
:1019C0000404044478000000000000004244485031
:1019D00070584C44420000000000000020202020ED
:1019E000202020203E000000000000006266675FAB
:1019F0005B5BC1C1C1000000000000006262725266
:101A00005A4A4E4646000000000000003C6243C3B4
:101A1000C3C343623C000000000000007C46424219
:101A20004678404040000000000000003C6243C394
:101A3000C3C343623C180F00000000007C6662666E
:101A40007C6C646662000000000000003E60406044
:101A50001C0602027C000000000000007F1818181D
:101A600018181818180000000000000042424242F6
:101A7000424242623C00000000000000C14342625A
:101A80002624341C1800000000000000C1C1414998
:101A90005B5B766666000000000000004366341859
:101AA000181C2466C300000000000000C142663418
:101AB0001C18181818000000000000007E02040C1A
:101AC000181020607E0000000000001C1010101094
:101AD000101010101010101C0000004020201010DA
:101AE00008080C04060200000000003C0C0C0C0C62
:101AF0000C0C0C0C0C0C0C3C00000000181C24629C
:101B000000000000000000000000000000000000D5
:101B100000000000000000FF000000201000000096
:101B200000000000000000000000000000003C0673
:101B3000023E42467A0000000000004040405C62E5
:101B4000424242427C0000000000000000001E20D3
:101B5000604060203E0000000000000202023E6281
:101B6000424242663A0000000000000000003C6271
:101B7000427E40603E0000000000000F1810107E02
:101B800010101010100000000000000000003F6660
:101B9000426658403E43423C0000004040405C6288
:101BA000424242424200000000000018180078083B
:101BB000080808087E000000000000040C007C04F7
:101BC0000404040404040C78000000606060626C8B
:101BD0007870686462000000000000780808080857
:101BE000080808087E000000000000000000764B96
:101BF0004B4B4B4B4B0000000000000000005C62B0
:101C000042424242420000000000000000003C62EC
:101C1000424342623C0000000000000000005C62A1
:101C2000424242427C4040400000000000003E62D0
:101C3000424242663A0202020000000000006E7258
:101C400063606060600000000000000000003E2053
:101C5000203C06027C000000000000001010FE1076
:101C6000101010101E000000000000000000424292
:101C7000424242663A000000000000000000434279
:101C80006624341818000000000000000000C1C1E4
:101C90005B5A5E66660000000000000000006226DD
:101CA0001C181C26620000000000000000004342D7
:101CB0006624341C181830E00000000000007E0686
:101CC0000C1810207E0000000000000E18101010EC
:101CD000307010101010180E0000080808080808CE
:101CE0000808080808080808000000301808080854
:101CF0000C0E080808081830000000000000000062
:101D0000714B060000000000000000000000000011
:101D100000000000000000000000000000000000C3
:101D200000000000000000000000000000000000B3
:101D300000000000000000000000000000000000A3
:101D40000000000000000000000000000000000093
:101D50000000000000000000000000000000000083
:101D60000000000000000000000000000000000073
:101D700000000000000000000000003C00003C00EB
:101D8000003C00003C00003C00003C00003C000027
:101D90003C00003C00003C00003C00003C00003CDB
:101DA00000003C00000000000000003C00007E003D
:101DB000003C0000000000000000000000000000E7
:101DC0000000000000000000000000000000000013
:101DD0000000000000000000000003C3E003C3E0B7
:101DE00003C3C003C3C003C3C003C3C003C1C00057
:101DF00000000000000000000000000000000000E3
:101E000000000000000000000000000000000000D2
:101E100000000000000000000000000000000000C2
:101E200000000000000000000000000000000000B2
:101E300000000000000000000000000000000000A2
:101E400001E0E001C0E001C0E001C0E03FFFFE3F73
:101E5000FFFE03C1C00381C00381C00381C07FFFB7
:101E6000FC7FFFFC07838007038007038007038054
:101E700007078000000000000000000000000000D4
:101E80000000000000000000000000000000000052
:101E900000000000000000000700000F00000E001E
:101EA00001FFF007FFF01F0E001E1E001E1C001E8B
:101EB0001C000FDC0007FC0000FF80003FF0003832
:101EC000F800387800783C0070783071F83FFFE017
:101ED0001FFF0000E00000E00000E0000000000044
:101EE00000000000000000000000000000000000F2
:101EF000000000000000000000000F800F3FE01E07
:101F000078703C7070707070E07071C03FE3801F3B
:101F1000C700000E00001C0000780000F0F001E790
:101F2000FC03CF0E078E0E0F0E0E1E0E0E3C07BCCE
:101F30007003F80000000000000000000000000036
:101F40000000000000000000000000000000000091
:101F50000000000000000000000000000001FF0081
:101F600007FF800F03C00F03C00F03C00F078007D8
:101F70009F0003FE0003F0000FF83C3E7C3C3C1F3A
:101F80003C780FF87807F87C01F03E03F81FFFFC5F
:101F900007FE1F000000000000000000000000001D
:101FA0000000000000000000000000000000000031
:101FB00000000000000000000000003E00003C00A7
:101FC000003C00003C00003C00003C00003C0000E5
:101FD0000000000000000000000000000000000001
:101FE00000000000000000000000000000000000F1
:101FF00000000000000000000000000000000000E1
:1020000000000000000000000000000000000000D0
:10201000000000000000000000800001C0000780F8
:10202000000F00001E00003C0000780000F00000DF
:10203000E00001E00001E00001C00003C00003C0B7
:102040000001C00001E00001E00000F00000F0002D
:10205000007800003C00001E00000F000007C000D8
:1020600001C00000000000000000000000000000AF
:102070000000000000000000000003C00001E000BC
:1020800000F000007C00003E00001E00000F000079
:1020900007800007800003800003C00003C0000326
:1020A000C00003C0000380000780000780000F000D
:1020B000001E00003C0000780000F00001E000037A
:1020C0008000000000000000000000000000000090
:1020D00000000000000000000000001C00001C00C8
:1020E0000018000F18F007DBE0007F0000FF00077A
:1020F000DBE00E1870001800001C00001C0000003F
:1021000000000000000000000000000000000000CF
:1021100000000000000000000000000000000000BF
:1021200000000000000000000000000000000000AF
:10213000000000000000000000000000000000009F
:10214000000000000000000000003C00003C000017
:102150003C00003C00003C00003C003FFFFC3FFF17
:10216000FC003C00003C00003C00003C00003C0047
:10217000000000000000000000000000000000005F
:10218000000000000000000000000000000000004F
:10219000000000000000000000000000000000003F
:1021A000000000000000000000000000000000002F
:1021B000000000000000000000000000000000001F
:1021C00000000000000000007C00007E00007E0097
:1021D000003E00001E00003C0000F80007E0000484
:1021E00000000000000000000000000000000000EF
:1021F00000000000000000000000000000000000DF
:1022000000000000000000000000000000000000CE
:10221000000000000000000000000003FFE003FFDA
:10222000E0000000000000000000000000000000CE
:10223000000000000000000000000000000000009E
:10224000000000000000000000000000000000008E
:10225000000000000000000000000000000000007E
:10226000000000000000000000000000000000006E
:10227000000000000000000000000000000000005E
:1022800000000000000000007C0000FE0000FE00D6
:10229000007E0000000000000000000000000000C0
:1022A000000000000000000000000000000000002E
:1022B000000000000000000000000000780000F0B6
:1022C0000000E00001E00003C00003800007800080
:1022D0000F00000E00001E00003C000038000070DF
:1022E0000000F00000E00001C00003C00007800013
:1022F0000700000F00001E00001C0000000000008E
:1023000000000000000000000000000000000000CD
:1023100000000000000000000000000000000000BD
:1023200001FFC007FFE00F00F01E00781E003C3CDC
:1023300000FC3C07FC3C1FBC3C7C1C3DF03C3FC00F
:102340003C3F003C1E00381E00780F80F007FFE085
:1023500001FF8000000000000000000000000000FD
:10236000000000000000000000000000000000006D
:10237000000000000000000000000000000000005D
:10238000007E0003FE001FDE000E1E00001E000087
:102390001E00001E00001E00001E00001E00001E89
:1023A00000001E00001E00001E00001E000FFFF8AF
:1023B0000FFFF80000000000000000000000000017
:1023C000000000000000000000000000000000000D
:1023D00000000000000000000000000000000000FD
:1023E00003FF800FFFE00E01F00000F00000F0009E
:1023F00000F00000F00001E00003C0000F80003E8C
:1024000000007C0001F00003C0000F80001FFFFCF3
:102410001FFFFC00000000000000000000000000A2
:1024200000000000000000000000000000000000AC
:10243000000000000000000000000000000000009C
:102440000FFF800FFFE00001E00000F00000F0004F
:1024500001E00003C001FF0001FFC00003F0000025
:10246000780000780000780000780001F00FFFC0CD
:102470000FFF00000000000000000000000000004E
:10248000000000000000000000000000000000004C
:10249000000000000000000000000000000000003C
:1024A000000FC0001FC0003FC0007BC000F3C00190
:1024B000E3C003C3C00783C00F03C01C03C03803BD
:1024C000C07FFFFE7FFFFE0003C00003C00003C00B
:1024D0000003C00000000000000000000000000039
:1024E00000000000000000000000000000000000EC
:1024F00000000000000000000000000000000000DC
:102500000FFFE00FFFE00F00000F00000F00000FB3
:1025100000000F00000FFF800FFFE00000F0000040
:10252000780000780000780000F00003E00FFFC0A2
:102530000FFE00000000000000000000000000008E
:10254000000000000000000000000000000000008B
:10255000000000000000000000000000000000007B
:10256000003FF001FFF003E0000780000F00001EB5
:1025700000001E1F001FFFE01FC1F81E00781E0094
:102580003C1E003C1E003C0F00780F80F807FFE067
:1025900001FF8000000000000000000000000000BB
:1025A000000000000000000000000000000000002B
:1025B000000000000000000000000000000000001B
:1025C0001FFFFC1FFFFC0000780000F00000E0008F
:1025D00001E00003C0000780000F00000F00001E94
:1025E00000003C0000780000F00001F00001E00075
:1025F00003C0000000000000000000000000000018
:1026000000000000000000000000000000000000CA
:1026100000000000000000000000000000000000BA
:1026200003FFE00FE3F00F00781E00781E00780F24
:1026300000F007E3E001FF8001FF8007E7E00F0003
:10264000F81E00781E003C1E007C1F00F80FFFF0F3
:1026500003FFC000000000000000000000000000B8
:10266000000000000000000000000000000000006A
:10267000000000000000000000000000000000005A
:1026800003FF800FC7E01E00F01E00783C00783C7E
:1026900000783C00381E00780FEFF807FFB8000004
:1026A000780000780000F00001E0000FC00FFF008C
:1026B0000FF000000000000000000000000000001B
:1026C000000000000000000000000000000000000A
:1026D00000000000000000000000000000000000FA
:1026E000000000000000000000000000007E00006C
:1026F0007E00007E000018000000000000000000C6
:1027000000000000000000003C00007E00007E0091
:10271000003E00000000000000000000000000007B
:1027200000000000000000000000000000000000A9
:102730000000000000000000000000000000000099
:10274000000000000000000000000000007E00000B
:102750007E00007E00001800000000000000000065
:1027600000000000000000003E00007E00007F002E
:10277000001F00001E00001E0000FC0007F0000407
:102780000000000000000000000000000000000049
:102790000000000000000000000000000000000039
:1027A0000000000000000000400001E00007C00041
:1027B0001F00007E0001F80003E0000F80000F8082
:1027C0000003E00000F800003E00000F800003E07E
:1027D0000000E00000000000000000000000000019
:1027E00000000000000000000000000000000000E9
:1027F00000000000000000000000000000000000D9
:1028000000000000000000000000000000000000C8
:1028100000000000001FFFF80000000000000000A2
:10282000001FFFF81FFFF80000000000000000007C
:102830000000000000000000000000000000000098
:102840000000000000000000000000000000000088
:102850000000000000000000000000000000000078
:1028600000000000000000000007800003E00000FE
:10287000F800003E00000F800003E00000F80001B7
:10288000F00007C0001F00007C0001F00007C0003E
:102890000300000000000000000000000000000035
:1028A0000000000000000000000000000000000028
:1028B0000000000000000000000001C00001FE0058
:1028C000007F800007C00001E00000F00000F00081
:1028D00001F00003E0007FC0007E00007000007087
:1028E0000000700000000000000000F80000F80088
:1028F00000F80000000000000000000000000000E0
:1029000000000000000000000000000000000000C7
:1029100000000000000000000000001F8000FFF029
:1029200003C07807801C0E000E1C000E3C000F3800
:102930003FC778FFC770E3C771C3C7F3C387E3C35B
:1029400087E3878EE3878EE3CF8EE3FFFC71F9F098
:102950007000007000003800003C00000F01C0074C
:10296000FFC00000000000000000000000000000A8
:102970000000000000000000000000000000000057
:10298000007E00007F0000FF0000E78001E7800379
:10299000C3C003C3C00781E00781E00F00F00F0050
:1029A000F81FFFF81FFFFC3C003C3C001E78001E97
:1029B000F0000F0000000000000000000000000018
:1029C0000000000000000000000000000000000007
:1029D00000000000000000000000000000000000F7
:1029E0001FFFC01FFFF01E00F01E00781E00781EA3
:1029F00000F01E01F01FFFC01FFFE01E01F81E00C7
:102A0000781E003C1E003C1E00781E00F81FFFE0F0
:102A10001FFF000000000000000000000000000098
:102A200000000000000000000000000000000000A6
:102A30000000000000000000000000000000000096
:102A400000FFF803FFF807C0000F00001E00001E83
:102A500000003C00003C00003C00003C00003C004A
:102A6000003E00001E00000F00000FC00803FFF82A
:102A700000FFF8000000000000000000000000005F
:102A80000000000000000000000000000000000046
:102A90000000000000000000000000000000000036
:102AA0003FFF003FFFE03C01F03C00783C003C3C35
:102AB000003C3C003C3C001E3C001E3C001E3C0018
:102AC0003C3C003C3C00783C00F83C07E03FFFC049
:102AD0003FFC0000000000000000000000000000BB
:102AE00000000000000000000000000000000000E6
:102AF00000000000000000000000000000000000D6
:102B00000FFFF00FFFF00F00000F00000F00000F8D
:102B100000000F00000FFFF00FFFF00F00000F008C
:102B2000000F00000F00000F00000F00000FFFF06B
:102B30000FFFF00000000000000000000000000097
:102B40000000000000000000000000000000000085
:102B50000000000000000000000000000000000075
:102B60000FFFF00FFFF00F00000F00000F00000F2D
:102B700000000F00000FFFF00FFFF00F00000F002C
:102B8000000F00000F00000F00000F00000F0000FA
:102B90000F00000000000000000000000000000026
:102BA0000000000000000000000000000000000025
:102BB0000000000000000000000000000000000015
:102BC00000FFFC03FFFC0FC0041F00001E00003CC0
:102BD00000003C0000780FFC780FFC78003C3C00C3
:102BE0003C3C003C3E003C1F003C0FC03C03FFFC53
:102BF00000FFF800000000000000000000000000DE
:102C000000000000000000000000000000000000C4
:102C100000000000000000000000000000000000B4
:102C20003C003C3C003C3C003C3C003C3C003C3C10
:102C3000003C3C003C3FFFFC3FFFFC3C003C3C00B8
:102C40003C3C003C3C003C3C003C3C003C3C003CF0
:102C50003C003C00000000000000000000000000FC
:102C60000000000000000000000000000000000064
:102C70000000000000000000000000000000000054
:102C80000FFFF80FFFF8003C00003C00003C000084
:102C90003C00003C00003C00003C00003C00003CCC
:102CA00000003C00003C00003C00003C000FFFF82E
:102CB0000FFFF8000000000000000000000000000E
:102CC0000000000000000000000000000000000004
:102CD00000000000000000000000000000000000F4
:102CE0000FFFE00FFFE00001E00001E00001E00065
:102CF00001E00001E00001E00001E00001E000016E
:102D0000E00001E00001E00003C00C07C00FFF80FD
:102D100007FE0000000000000000000000000000AE
:102D200000000000000000000000000000000000A3
:102D30000000000000000000000000000000000093
:102D40001E00781E01F01E03C01E07801E1F001EFD
:102D50003C001E78001EF0001FF0001EF8001E3C14
:102D6000001E1E001E0F801E07C01E01E01E00F880
:102D70001E007C00000000000000000000000000B9
:102D80000000000000000000000000000000000043
:102D90000000000000000000000000000000000033
:102DA0000780000780000780000780000780000779
:102DB00080000780000780000780000780000780F0
:102DC0000007800007800007800007800007FFF8E9
:102DD00007FFF800000000000000000000000000F5
:102DE00000000000000000000000000000000000E3
:102DF00000000000000000000000000000000000D3
:102E00003E007C3F00FC3F81DC3B81DC3BC39C39C6
:102E1000C39C38E71C38EF1C387E1C387C1E383CBD
:102E20001E78001E78001E78001E78001E78001E96
:102E300078001E00000000000000000000000000FC
:102E40000000000000000000000000000000000082
:102E50000000000000000000000000000000000072
:102E60001F003C1F803C1FC03C1DC03C1DE03C1CA3
:102E7000F03C1C783C1C783C1C3C3C1C1E3C1C0F51
:102E80003C1C0F3C1C07BC1C03FC1C01FC1C00FC74
:102E90001C00FC000000000000000000000000001A
:102EA0000000000000000000000000000000000022
:102EB0000000000000000000000000000000000012
:102EC00001FFC007FFF00F00F81E007C3C003C3CF7
:102ED000001E78001E78001E78001E78001E780004
:102EE0001E3C003C3C003C1E00781F00F007FFE049
:102EF00001FF800000000000000000000000000052
:102F000000000000000000000000000000000000C1
:102F100000000000000000000000000000000000B1
:102F20001FFF801FFFF01E00F81E007C1E003C1ECD
:102F3000003C1E003C1E00781E03F01FFFC01FFE59
:102F4000001E00001E00001E00001E00001E0000EB
:102F50001E00000000000000000000000000000053
:102F60000000000000000000000000000000000061
:102F70000000000000000000000000000000000051
:102F800001FFC007FFF00F00F81E007C3C003C3C36
:102F9000001E78001E78001E78001E78001E780043
:102FA0001E3C003C3C003C1E00781F80F007FFE008
:102FB00001FF80003C00003C00001F06000FFF00E6
:102FC00001F8000000000000000000000000000008
:102FD00000000000000000000000000000000000F1
:102FE0000FFF800FFFE00E01F00E00F00E00F00E5C
:102FF00000F00E01F00FFFC00FFF000E1F000E07C4
:10300000800E03C00E01E00E00F00E00F80E0078F6
:103010000E003C0000000000000000000000000066
:1030200000000000000000000000000000000000A0
:103030000000000000000000000000000000000090
:1030400003FFF00FFFF01F00001E00001E00001F16
:1030500000000FC00007FC0000FF80000FF000011F
:10306000F80000780000780000782000F83FFFE0CA
:103070003FFF800000000000000000000000000092
:103080000000000000000000000000000000000040
:103090000000000000000000000000000000000030
:1030A0003FFFFC3FFFFC003C00003C00003C0000F8
:1030B0003C00003C00003C00003C00003C00003CA8
:1030C00000003C00003C00003C00003C00003C00D4
:1030D000003C0000000000000000000000000000B4
:1030E00000000000000000000000000000000000E0
:1030F00000000000000000000000000000000000D0
:103100003C003C3C003C3C003C3C003C3C003C3C2B
:10311000003C3C003C3C003C3C003C3C003C3C0057
:103120003C3C003C3C003C1E00781F00F80FFFE0D8
:1031300003FF80000000000000000000000000000D
:10314000000000000000000000000000000000007F
:10315000000000000000000000000000000000006F
:10316000F8000F78001E3C001E3C003C1E00381E7C
:1031700000780F00700F00F00781E00781E003C3C3
:10318000C003E3C001E78000F78000FF00007E007D
:10319000007E0000000000000000000000000000B1
:1031A000000000000000000000000000000000001F
:1031B000000000000000000000000000000000000F
:1031C00078000E78000E78000E78001E38001E3849
:1031D000001E383C1C383C1C387E1C387F1C3CE7E9
:1031E0001C3CE79C3DC39C1DC3DC1F81DC1F80F899
:1031F0001F00F800000000000000000000000000B8
:1032000000000000000000000000000000000000BE
:1032100000000000000000000000000000000000AE
:103220003C003C1E00780F00F00781E003C3C001A2
:10323000E78000FF00007E00007E0000FF0001FF2D
:103240008003E7C007C3E00F81F01F00F83E007C59
:103250007C003E00000000000000000000000000B4
:10326000000000000000000000000000000000005E
:10327000000000000000000000000000000000004E
:1032800078001F3C003E1E007C1F00780F80F00776
:10329000C1E003E3C001E78000FF00007E00003CC6
:1032A00000003C00003C00003C00003C00003C00F2
:1032B000003C0000000000000000000000000000D2
:1032C00000000000000000000000000000000000FE
:1032D00000000000000000000000000000000000EE
:1032E0001FFFFC1FFFFC0000F80001E00003C0000E
:1032F0000780000F00001E00003C0000780000F076
:103300000003E00007C0000F80001F00003FFFFC2B
:103310003FFFFC0000000000000000000000000073
:10332000000000000000000000000000000000009D
:103330000000000000000000000001FFC001FFC00D
:1033400001E00001E00001E00001E00001E0000117
:10335000E00001E00001E00001E00001E00001E028
:103360000001E00001E00001E00001E00001E000F8
:1033700001E00001E00001E00001E00001E00001E7
:10338000FFC000000000000000000000000000007E
:10339000000000000000000000000E00000F000010
:1033A00007000003800003C00001E00000E000000F
:1033B000F000007800003800003C00001E00000E05
:1033C00000000F000007800003800001C00001E042
:1033D0000000E000007000007800003C00000000E9
:1033E00000000000000000000000000000000000DD
:1033F0000000000000000000000003FF8003FF80C9
:103400000007800007800007800007800007800019
:103410000780000780000780000780000780000702
:103420008000078000078000078000078000078079
:1034300000078000078000078000078000078003E6
:10344000FF800000000000000000000000000000FD
:10345000000000000000000000000000000000006C
:10346000003C00007E0000E70001C3800381C0072C
:1034700000E00E00F01E00780000000000000000D8
:10348000000000000000000000000000000000003C
:10349000000000000000000000000000000000002C
:1034A000000000000000000000000000000000001C
:1034B000000000000000000000000000000000000C
:1034C00000000000000000000000000000000000FC
:1034D00000000000000000000000000000000000EC
:1034E00000000000000000000000000000000000DC
:1034F000000000000000000000000000FFFFFFFFD0
:10350000FFFF0000000000000000000000000000BD
:10351000000000000000000000000F800003E00039
:1035200000F800003C000000000000000000000067
:10353000000000000000000000000000000000008B
:10354000000000000000000000000000000000007B
:10355000000000000000000000000000000000006B
:10356000000000000000000000000000000000005B
:10357000000000000000000000000000000000004B
:1035800000000000000000000000000007FFC0076E
:10359000E7F00000F000007800007800FFF807FF77
:1035A000F80F00781E00781E00781E03F80FFFF851
:1035B00007FC780000000000000000000000000090
:1035C00000000000000000000000000000000000FB
:1035D000000000000000000000001E00001E0000AF
:1035E0001E00001E00001E00001E00001E7FE01EC8
:1035F000FFF01FC0781F00781E003C1E003C1E001C
:103600003C1E003C1E00381E00781E00F01FFFE02C
:1036100007FF0000000000000000000000000000A4
:10362000000000000000000000000000000000009A
:10363000000000000000000000000000000000008A
:1036400000000000000000000000000000FFF00388
:10365000FFF007C0000F80000F00001E00001E00DA
:10366000001E00000F00000F800007C00003FFF0E5
:1036700000FFF0000000000000000000000000005B
:10368000000000000000000000000000000000003A
:10369000000000000000000000000000780000783A
:1036A00000007800007800007800007801FFF8073B
:1036B000FFF80F00781E00781E00783C00783C0070
:1036C000783C00781C00781E01F81F03F80FFF7883
:1036D00003FC780000000000000000000000000073
:1036E00000000000000000000000000000000000DA
:1036F00000000000000000000000000000000000CA
:1037000000000000000000000000000001FFC007F2
:10371000E3F00F00F81E00781E003C1FFFFC1FFFA7
:10372000FC1C00001E00001E00000F800007FFF8B8
:1037300001FFF80000000000000000000000000091
:103740000000000000000000000000000000000079
:10375000000000000000000000000003FC001FFE4D
:10376000003E00007800007800007000007000004B
:1037700070003FFFFC3FFFFC007000007000007015
:103780000000700000700000700000700000700009
:1037900000700000000000000000000000000000B9
:1037A0000000000000000000000000000000000019
:1037B0000000000000000000000000000000000009
:1037C00000000000000000000000000003FFFC07F4
:1037D000C3FC0F00F01E00F01E00F00F00F00F837E
:1037E000E00FFFC01E7C001C00001F00000FFFF058
:1037F0000FFFFC1E003C3C003C3C003C1F81F80FCE
:10380000FFE00038000000000000000000000000A1
:10381000000000000000000000001E00001E00006C
:103820001E00001E00001E00001E00001E7FE01E85
:10383000FFF01FC0F01F00781E00781E00781E00E9
:10384000781E00781E00781E00781E00781E007812
:103850001E007800000000000000000000000000D2
:103860000000000000000000000000000000000058
:1038700000000000000000000000003C00007E008E
:10388000007E00003C000000000000000FFE000F62
:10389000FE00001E00001E00001E00001E00001E94
:1038A00000001E00001E00001E00001E000FFFF89A
:1038B0000FFFF80000000000000000000000000002
:1038C00000000000000000000000000000000000F8
:1038D000000000000000000000000003800007E07E
:1038E0000007E00003800000000000000FFFC00F91
:1038F000FFC00003C00003C00003C00003C00003FA
:10390000C00003C00003C00003C00003C00003C028
:103910000003C00003C00003C00007801E3F001F5B
:10392000FE0001C0000000000000000000000000D8
:10393000000000000000000000000F00000F000069
:103940000F00000F00000F00000F00000F00F80F25
:1039500001E00F07C00F1F000F3C000FF8000FF829
:10396000000F3E000F1F000F07C00F03E00F00F80D
:103970000F007C00000000000000000000000000BC
:103980000000000000000000000000000000000037
:10399000000000000000000000000FFE000FFE000D
:1039A000001E00001E00001E00001E00001E000081
:1039B0001E00001E00001E00001E00001E00001E53
:1039C00000001E00001E00001E00001E000FFFF879
:1039D0000FFFF800000000000000000000000000E1
:1039E00000000000000000000000000000000000D7
:1039F00000000000000000000000000000000000C7
:103A000000000000000000000000000039F9F83B51
:103A1000BBBC3E3E1C3C3E1C383C1C383C1C383C6D
:103A20001C383C1C383C1C383C1C383C1C383C1CAA
:103A3000383C1C00000000000000000000000000F6
:103A40000000000000000000000000000000000076
:103A50000000000000000000000000000000000066
:103A60000000000000000000000000001E7FE01EBB
:103A7000FFF01FC0F01F00781E00781E00781E00A7
:103A8000781E00781E00781E00781E00781E0078D0
:103A90001E00780000000000000000000000000090
:103AA0000000000000000000000000000000000016
:103AB0000000000000000000000000000000000006
:103AC00000000000000000000000000001FFC0072F
:103AD000E7F00F00F81E003C3C003C3C003C3C0082
:103AE0003C3C003C3C003C1E00781F00F007FFE01F
:103AF00001FF800000000000000000000000000046
:103B000000000000000000000000000000000000B5
:103B100000000000000000000000000000000000A5
:103B20000000000000000000000000001E7FE01EFA
:103B3000FFF01FC0781F00781E003C1E003C1E00D6
:103B40003C1E003C1E00381E00781E00F01FFFE0E7
:103B50001FFF001E00001E00001E00001E00001EB1
:103B60000000000000000000000000000000000055
:103B70000000000000000000000000000000000045
:103B800000000000000000000000000001FFF80736
:103B9000F7F80F00781E00781E00783C00783C0093
:103BA000783C00781C00781E01F81F03F80FFF789E
:103BB00003FC7800007800007800007800007800AE
:103BC000007800000000000000000000000000007D
:103BD00000000000000000000000000000000000E5
:103BE0000000000000000000000000000F1FF00FA8
:103BF0007FF80FE03C0F803C0F003C0F00000F00EF
:103C0000000F00000F00000F00000F00000F000069
:103C10000F00000000000000000000000000000095
:103C20000000000000000000000000000000000094
:103C30000000000000000000000000000000000084
:103C400000000000000000000000000001FFE0078D
:103C5000E1E00F00000F000007800003FC0000FF00
:103C6000C0000FF00000F00000780000F00FFFE04F
:103C70000FFF8000000000000000000000000000B6
:103C80000000000000000000000000000000000034
:103C90000000000000000000000000000000000024
:103CA00001E00001E00001E00001E0007FFFF87F9B
:103CB000FFF801E00001E00001E00001E00001E0A8
:103CC0000001E00001E00001E00000F000007FF8EA
:103CD000003FF800000000000000000000000000AD
:103CE00000000000000000000000000000000000D4
:103CF00000000000000000000000000000000000C4
:103D00000000000000000000000000001E00781EFF
:103D100000781E00781E00781E00781E00781E00B5
:103D2000781E00781E00780E00F80F03F807FF7861
:103D300003FC78000000000000000000000000000C
:103D40000000000000000000000000000000000073
:103D50000000000000000000000000000000000063
:103D60000000000000000000000000003C003C1EBD
:103D7000007C1E00780F00F00F80F00781E003C385
:103D8000C003C3C001E78000E70000FF00007E0021
:103D9000003C0000000000000000000000000000E7
:103DA0000000000000000000000000000000000013
:103DB0000000000000000000000000000000000003
:103DC00000000000000000000000000078000E78F5
:103DD000001E78001E383C1E383C1C3C7E1C3C7E7D
:103DE0003C1CE73C1CE7B81DC3B81FC3F80F81F8A3
:103DF0000F81F00000000000000000000000000043
:103E000000000000000000000000000000000000B2
:103E100000000000000000000000000000000000A2
:103E20000000000000000000000000001F007C0FE8
:103E300080F007C1E003E3C000F780007F00003E90
:103E40000000FF0001E78003C3C00781F01F00F8F6
:103E50003E007C00000000000000000000000000A8
:103E60000000000000000000000000000000000052
:103E70000000000000000000000000000000000042
:103E80000000000000000000000000003C003C1E9C
:103E9000003C1E00780F00F00780F00781E003C1AE
:103EA000C003C3C001E78000F78000FF00007E0070
:103EB000003E00003C0000780001F0007FE0007F41
:103EC0008000000000000000000000000000000072
:103ED00000000000000000000000000000000000E2
:103EE0000000000000000000000000000FFFF00FC5
:103EF000FFF00001E00007C0000F80001E00003C42
:103F00000000F80001E00003C0000780000FFFF888
:103F10000FFFF8000000000000000000000000009B
:103F20000000000000000000000000000000000091
:103F3000000000000000000000000007E0001FE09B
:103F4000003C0000380000380000780000780000D5
:103F500078000078000078001FF0001F800001F05A
:103F600000007800007800007800007800007800F9
:103F7000007800007800003800003C00001F80003E
:103F80000FE0000000000000000000000000000042
:103F900000003C00003C00003C00003C00003C00F5
:103FA000003C00003C00003C00003C00003C0000E5
:103FB0003C00003C00003C00003C00003C00003C99
:103FC00000003C00003C00003C00003C00003C00C5
:103FD000003C00003C00003C00003C00003C0000B5
:103FE0003C00000000000000000000000000000095
:103FF0000000000000000000000007E00007F800DB
:10400000003C00001E00001E00001E00001E0000FC
:104010001E00001E00000E00000FF80001F8000F47
:1040200080000E00001E00001E00001E00001E008A
:10403000001E00001E00001E00003C0000FC0007E7
:10404000F000000000000000000000000000000080
:104050000000000000000000000000000000000060
:104060000000000000000000000000000000000050
:10407000000000000007C0001FF01E3C7C1E381F1F
:10408000FC7807F8000000000000000000000000BD
:104090000000000000000000000000000000000020
:1040A0000000000000000000000000000000000010
:1040B0000102030406070809D84000080000002098
:1040C00084060000B0010008744200088406002045
:1040D000AC4800009E16000823060212F02340019F
:1040E00043FFFF1364061320011206341FFFE01084
:1040F000097FFF449044907C91100A0244F4448864
:1041000044947CE2192A400F080108820F44F828E1
:10411000081008680F862D1FFE100402431FFE487A
:1041200009402040204FFF4920023B7FE0082E221B
:1041300049214FFE1A211A010212021E3FFC0202FF
:104140000402180BFFF20802084210221FC21512C7
:1041500002321E392138137FE24004401840604F7C
:1041600080407E400140017FE11832071C0840106A
:104170004A154040804112421C4FFF700612411BFD
:1041800040801242301813420246234A22522263D0
:10419000FE42244A2446244304A21AF05C3B01FF59
:1041A000A0116A80E2100E0208043018C0F002105C
:1041B0000113FE1077108014601818121A02181CD0
:1041C0001610401080911577FF19011809C27E045E
:1041D000421843E042824E43FC42027EC0091E6008
:1041E0002A20024C7F2049024AFF083A7F16190212
:1041F00019E5181A09013101212121622192AF1418
:1042000061082108213421C421022901311C7112C5
:10421000201210121802150C180A4002400440180F
:1042200040F040AA2C401FFF064902112902094014
:1042300060111B3FFC341016083FFC080117C22414
:104240004CE47027C0247C2C42344207C20A250E5D
:104250006001FF01FF01FF01DEE3400113181713A6
:104260000808121013081D1308181220291F8210A5
:044270001324F4001F
:0400000508000131BD
:00000001FF
